:020000040800F2
:1000000000000320790C000831280008332800087C
:1000100035280008372800083928000800000000AB
:1000200000000000000000000000000071A20008B5
:100030003B2800080000000001A30008959B000871
:10004000C90C0008C90C0008C90C0008C90C00083C
:10005000C90C0008C90C0008C90C0008C90C00082C
:10006000C90C0008C90C0008C90C0008C90C00081C
:10007000C90C0008C90C0008C90C0008C90C00080C
:10008000C90C0008C90C0008C90C0008C90C0008FC
:10009000C90C0008C90C0008C90C0008C90C0008EC
:1000A000C90C0008C90C0008C90C0008C90C0008DC
:1000B000C90C0008C90C0008C90C0008C90C0008CC
:1000C000C90C0008C90C0008C90C0008C90C0008BC
:1000D000C90C0008C90C0008C90C0008C90C0008AC
:1000E000C90C0008C90C0008C90C0008C90C00089C
:1000F000C90C0008C90C0008C90C0008C90C00088C
:10010000C90C0008C90C0008C90C0008C90C00087B
:10011000C90C0008C90C00083D280008C90C0008DB
:10012000C90C0008C90C0008C90C0008C90C00085B
:10013000C90C0008C90C0008C90C0008C90C00084B
:10014000C90C0008C90C0008C90C0008C90C00083B
:10015000C90C0008C90C0008C90C0008C90C00082B
:10016000C90C0008C90C0008C90C0008C90C00081B
:10017000C90C0008C90C0008C90C000800000000E8
:10018000C90C0008C90C0008C90C0008C90C0008FB
:10019000C90C0008C90C0008C90C0008C90C0008EB
:0C01A00049280008C90C00085528000878
:1001B00010B5054C237833B9044B13B10448AFF3A1
:1001C00000800123237010BD800300200000000088
:1001D000A87A020808B5034B1BB103490348AFF3E3
:1001E000008008BD0000000084030020A87A0208F7
:1001F00001F0FF01102A2BDB10F0070F08D010F8D8
:10020000013B013A8B422DD010F0070F42B3F6D1DB
:10021000F0B441EA012141EA014122F007047FF0F4
:1002200000070023F0E80256083C85EA010586EA4B
:10023000010685FA47F5A3FA87F586FA47F6A5FA87
:1002400087F68EB9EED1F0BC01F0FF0102F0070293
:1002500032B110F8013B013A83EA010313B1F8D13E
:100260000020704701387047002D06BF354603381F
:10027000073815F0010F07D1013015F4807F02BF58
:10028000013015F4C03F0130F0BC0138704700BFA9
:1002900070B54FF0FF0C4CF4E06C1CEA11541DBF1C
:1002A0001CEA135594EA0C0F95EA0C0F00F0DEF8E7
:1002B0002C4481EA030621EA4C5123EA4C5350EACC
:1002C000013518BF52EA033541F4801143F480131D
:1002D00038D0A0FB02CE4FF00005E1FB02E506F0AE
:1002E0000042E0FB03E54FF00006E1FB03569CF003
:1002F000000F18BF4EF0010EA4F1FF04B6F5007F09
:1003000064F5407404D25FEA4E0E6D4146EB06067A
:1003100042EAC62141EA55514FEAC52040EA5E5003
:100320004FEACE2EB4F1FD0C88BFBCF5E06F1ED8AD
:10033000BEF1004F08BF5FEA500E50F1000041EBE4
:10034000045170BD06F0004646EA010140EA020091
:1003500081EA0301B4EB5C04C2BFD4EB0C0541EAB3
:10036000045170BD41F480114FF0000E013C00F3C8
:10037000AB8014F1360FDEBF002001F0004170BDEC
:10038000C4F10004203C35DA0C341BDC04F1140405
:10039000C4F1200500FA05F320FA04F001FA05F291
:1003A00040EA020001F0004221F0004110EBD3705E
:1003B00021FA04F642EB06015EEA430E08BF20EA8A
:1003C000D37070BDC4F10C04C4F1200500FA04F32D
:1003D00020FA05F001FA04F240EA020001F00041BF
:1003E00010EBD37041F100015EEA430E08BF20EA32
:1003F000D37070BDC4F1200500FA05F24EEA020E7A
:1004000020FA04F301FA05F243EA020321FA04F0A8
:1004100001F0004121FA04F220EA020000EBD3705F
:100420005EEA430E08BF20EAD37070BD94F0000F5F
:100430000FD101F00046400041EB010111F4801F93
:1004400008BF013CF7D041EA060195F0000F18BF44
:10045000704703F00046520043EB030313F4801F80
:1004600008BF013DF7D043EA0603704794EA0C0F3A
:100470000CEA135518BF95EA0C0F0CD050EA410650
:1004800018BF52EA4306D1D181EA030101F00041CD
:100490004FF0000070BD50EA410606BF10461946F5
:1004A00052EA430619D094EA0C0F02D150EA013601
:1004B00013D195EA0C0F05D152EA03361CBF104642
:1004C00019460AD181EA030101F0004141F0FE41E1
:1004D00041F470014FF0000070BD41F0FE4141F465
:1004E000780170BD81F0004102E000BF83F000435D
:1004F00030B54FEA41044FEA430594EA050F08BFBF
:1005000090EA020F1FBF54EA000C55EA020C7FEA82
:10051000645C7FEA655C00F0E2804FEA5454D4EBFF
:100520005555B8BF6D420CDD2C4480EA020281EAC9
:10053000030382EA000083EA010180EA020281EA01
:100540000303362D88BF30BD11F0004F4FEA013153
:100550004FF4801C4CEA113102D0404261EB410162
:1005600013F0004F4FEA03334CEA133302D05242E8
:1005700063EB430394EA050F00F0A780A4F10104A4
:10058000D5F1200E0DDB02FA0EFC22FA05F28018DE
:1005900041F1000103FA0EF2801843FA05F35941C4
:1005A0000EE0A5F120050EF1200E012A03FA0EFC43
:1005B00028BF4CF0020C43FA05F3C01851EBE3716D
:1005C00001F0004507D54FF0000EDCF1000C7EEB8A
:1005D00000006EEB0101B1F5801F1BD3B1F5001FC8
:1005E0000CD349085FEA30004FEA3C0C04F10104E7
:1005F0004FEA445212F5800F80F09A80BCF1004F10
:1006000008BF5FEA500C50F1000041EB045141EA91
:10061000050130BD5FEA4C0C404141EB0101013C5A
:1006200028BFB1F5801FE9D291F0000F04BF014649
:100630000020B1FA81F308BF2033A3F10B03B3F11B
:1006400020020CDA0C3208DD02F1140CC2F10C02AB
:1006500001FA0CF021FA02F10CE002F11402D8BF09
:10066000C2F1200C01FA02F120FA0CFCDCBF41EAD5
:100670000C019040E41AA2BF01EB0451294330BDA4
:100680006FEA04041F3C1CDA0C340EDC04F1140481
:10069000C4F1200220FA04F001FA02F340EA030058
:1006A00021FA04F345EA030130BDC4F10C04C4F19E
:1006B000200220FA02F001FA04F340EA030029467E
:1006C00030BD21FA04F0294630BD94F0000F83F4C8
:1006D000801306BF81F480110134013D4EE77FEAAB
:1006E000645C18BF7FEA655C29D094EA050F08BFF7
:1006F00090EA020F05D054EA000C04BF19461046D8
:1007000030BD91EA030F1EBF0021002030BD5FEA1B
:10071000545C05D14000494128BF41F0004130BD43
:1007200014F580043CBF01F5801130BD01F0004597
:1007300045F0FE4141F470014FF0000030BD7FEA0A
:10074000645C1ABF194610467FEA655C1CBF0B4605
:10075000024650EA013406BF52EA033591EA030F1C
:1007600041F4002130BD00BF90F0000F04BF002114
:10077000704730B54FF4806404F132044FF0000547
:100780004FF0000150E700BF90F0000F04BF0021C0
:10079000704730B54FF4806404F1320410F0004526
:1007A00048BF40424FF000013EE700BF42004FEA21
:1007B000E2014FEA31014FEA02701FBF12F07F439E
:1007C00093F07F4F81F06051704732F07F4208BF55
:1007D000704793F07F4F04BF41F40021704730B55C
:1007E0004FF4607401F0004521F000411CE700BFA8
:1007F00050EA010208BF704730B54FF000050AE02B
:1008000050EA010208BF704730B511F0004502D52B
:10081000404261EB41014FF4806404F132045FEA2D
:10082000915C3FF4D8AE4FF003025FEADC0C18BFD6
:1008300003325FEADC0C18BF033202EBDC02C2F1C8
:10084000200300FA03FC20FA02F001FA03FE40EA5A
:100850000E0021FA02F11444BDE600BF4FEA410246
:1008600012F5001215D211D56FF47873B3EB625202
:1008700012D94FEAC12343F0004343EA505311F029
:10088000004F23FA02F018BF404270474FF00000BB
:10089000704750EA013005D111F0004008BF6FF0F9
:1008A000004070474FF00000704700BF7BB972B93D
:1008B0000029BEBF00204FF0004106E008BF00281D
:1008C0001CBF6FF000414FF0FF3000F0D3B9ADF125
:1008D000080C6DE904CE002909DB002B1ADB00F0BF
:1008E0004DF8DDF804E0DDE9022304B07047404232
:1008F00061EB4101002B1BDB00F040F8DDF804E068
:10090000DDE9022304B0404261EB4101524263EB56
:1009100043037047524263EB430300F02FF8DDF8C6
:1009200004E0DDE9022304B0404261EB410170477D
:10093000524263EB430300F021F8DDF804E0DDE907
:10094000022304B0524263EB4303704753B94AB9E0
:10095000002908BF00281CBF4FF0FF314FF0FF30C7
:1009600000F088B9ADF1080C6DE904CE00F006F88E
:10097000DDF804E0DDE9022304B070472DE9F0471B
:10098000089D8E4604468846002B4AD18A42174667
:1009900062D9B2FA82F64EB1C6F1200301FA06F826
:1009A00020FA03F3B74043EA0808B4404FEA174E71
:1009B0001FFA87FCB8FBFEF1230C0EFB118843EAFB
:1009C000084301FB0CF29A4209D9FB1801F1FF30F0
:1009D00080F0EA809A4240F2E78002393B449A1A5A
:1009E000A3B2B2FBFEF00EFB102243EA024300FB6F
:1009F0000CFC9C4509D9FB1800F1FF3280F0D68031
:100A00009C4540F2D3803B44023840EA0140A3EBCE
:100A10000C0300211DB1F3400022C5E90032BDE8FE
:100A2000F0878B4205D90DB1C5E9000100210846C8
:100A3000F5E7B3FA83F1002946D1734502D3824228
:100A400000F20581841A6EEB030201209046002D0E
:100A5000E5D0C5E90048E2E7002A00F09080B2FA4C
:100A600082F6002E40F0A4808A1A030C4FEA174E3B
:100A700080B2BCB20121B2FBFEFC0EFB1C2243EA99
:100A8000024304FB0CF29A4207D9FB180CF1FF3821
:100A900002D29A4200F2E080C4469B1AB3FBFEF2F7
:100AA0000EFB123340EA034302FB04F49C4207D9D5
:100AB000FB1802F1FF3002D29C4200F2CA800246CB
:100AC0001B1B42EA0C40A5E7C1F120068B4022FA2D
:100AD00006F71F430EFA01F420FA06F32EFA06FE7B
:100AE0004FEA1749234300FA01F81FFA87FCBEFBBF
:100AF000F9F01C0C09FB10EE44EA0E4400FB0CFE5E
:100B0000A64502FA01F209D93C1900F1FF3A80F03A
:100B10009C80A64540F2998002383C44A4EB0E0428
:100B20001FFA83FEB4FBF9F309FB13444EEA0444B5
:100B300003FB0CFCA44508D93C1903F1FF3E80F0EF
:100B40008280A4457FD9023B3C4443EA0040A4EBA9
:100B50000C04A0FB02EC64457346E14662D35FD00F
:100B60005DB1B8EB030264EB090404FA06F622FA5D
:100B700001F31E43CC40C5E9006400214FE7B1FBFF
:100B8000F2FC010C41EA0E4180B240EA01423B46D0
:100B900038463C46B846BE462026B1FBF7F1A2EBEC
:100BA000080241EA0C4166E7014618E710462CE7C7
:100BB000C6F120022EFA02F3B740B14020FA02F249
:100BC0004FEA174E0A43B3FBFEF8BCB20EFB1833D4
:100BD000110C41EA034108FB04F9B04089454FEA92
:100BE000104380B23ED9791808F1FF3C01D2894503
:100BF0001FD8A1EB0901B1FBFEF909FB04F80EFBBC
:100C0000191192B242EA0142424529D2BA1809F1B9
:100C1000FF31C4D24245C2D2A9F102013A44BEE733
:100C2000F0459DD2BEEB02036CEB070C0138E146A8
:100C300096E7A7EB09094944A8F1020CB1FBFEF9BC
:100C400009FB04F8DBE773467FE7504666E7084692
:100C5000FDE63B44023A33E7ACF1020C3B441CE7AF
:100C600049469CE7A1EB0901C446B1FBFEF909FB2B
:100C700004F8C4E7704700BFDFF834D0002103E078
:100C80000C4B5B58435004310B480C4B42189A42B2
:100C9000F6D30B4A02E0002342F8043B094B9A4288
:100CA000F9D306F0F9FC26F091F901F067F87047E6
:100CB000000003202C111308000000206801002010
:100CC00080030020548F0120FEE7704708B500F034
:100CD000BFFDBDE8084000F041BD00F0BBBD70475E
:100CE00010B50421044624F085FF204610BD000005
:100CF00038B50C4B0C4C18800C4B82201980636863
:100D0000984740F6110398420AD1094D23682C6098
:100D1000822098472B688220DB689847002038BDE6
:100D20000120FCE7A603002050000020A4030020BF
:100D3000A80300204FF4A071F020FFF7D9BF0000F6
:100D4000F7B5394D2B6804461B69822098472080EF
:100D500000284ED02B680DF106025B6901A98220A4
:100D60009847324B1B78002B4BD0BDF8062040F63D
:100D700074639A423FD9ADF80630BDF806209B1A3D
:100D80009BB20A2B42D90B22B3FBF2F3284A1288FA
:100D9000934201D9013A93B2BDF80420254840F6A8
:100DA000B8318A4234D8C2F571620E32016892B20B
:100DB0000F25B2FBF5F2204D2D88AA4284BF05F124
:100DC000FF35AAB28A4215468EB22AD9921B91B239
:100DD0001A4E3768BB42BAB28CBF9A1AD21A92B274
:100DE00011440529C4BF056033600368638033681C
:100DF000A38003B0F0BDB32A9CBFB422ADF8062097
:100E0000BBE7BDF80630A3F5B473B9E70023C3E729
:100E1000C2F56D62083292B20E2A0168C8D8002568
:100E20002A46891A89B2D3E7A80300209C710020C2
:100E3000A4030020A0030020A60300209C030020A0
:100E400037B568460D461446FFF77AFFBDF8000037
:100E500030B1BDF802302B60BDF8043023600120B2
:100E600003B030BD032821D8DFE800F0020B1219CF
:100E70000F4B1A68B2FA82F2520904210D4806F0AB
:100E80009FBE0B4B5A68B2FA82F252090821F5E76D
:100E9000074B9A68B2FA82F252091021EEE7044B2E
:100EA000DA68B2FA82F252092021E7E7704700BF00
:100EB000AC03002000100240032821D8DFE800F036
:100EC000020B12190F4B1A68003A18BF01220421B5
:100ED0000D4806F075BE0B4B5A68003A18BF012248
:100EE0000821F5E7074B9A68003A18BF0122102144
:100EF000EEE7044BDA68003A18BF01222021E7E749
:100F0000704700BFAC0300200010024003280DD83A
:100F1000DFE800F00206080A0421054806F055BE85
:100F20000821FAE71021F8E72021F6E7704700BF13
:100F30000010024008B5032811D8DFE800F0020ACB
:100F40000C0E0421074806F035FE431E5842584156
:100F500008BD0821F6E71021F4E72021F2E7002080
:100F6000F3E700BF0010024070B5084D00240126D1
:100F7000E0B2FFF7DFFF18B12B68012B18BF2E601E
:100F80000134052C05F10405F2D170BDAC0300203D
:100F9000012380F8781080F879307047704700207E
:100FA00070470000034B4164003918BF01211970DC
:100FB000704700BF13820120704700207047836B89
:100FC0000BB10846184770474FF6FF7070474068EE
:100FD00003689B69184770477047704770477047B0
:100FE00010B5044600F04CFD23680349D3F8903057
:100FF0002046BDE810401847000000D008B503683F
:101000000446D3F88430984723682046DB6F98471E
:1010100000F0ECF8236820465B6F9847292001F028
:1010200027F900F0E3F8236820465B6F9847F8E75C
:1010300010B504460CF090F923682046D3F8BC3074
:10104000BDE81040184700F0FFBC00F003BD00F001
:1010500035BD00F0D5BC00F045BD00F04DBD00F041
:10106000D9BC0BF0A7BB10B58421044624F0C2FD07
:10107000204610BD10B590F8341090F878400C4B15
:101080008C421A7809D03AB90A4A0B491488088860
:1010900010800C8001221A7010BD002AFCD0054A75
:1010A00005491488088810800C800022F3E700BFEF
:1010B0000C820120088201200A82012070B50D46B1
:1010C000194635B9094B0A4A0A4840F2FF2125F072
:1010D000CDFCC0E90F52084B003A18BF01221A702C
:1010E0000368BDE87040D3F890301847D87B0208F9
:1010F000107C02085E7C02081282012008B5094BB0
:101100001B888B4203D8084B1B88934205D9074B99
:10111000074A0848A32125F0A9FC074B1980074B73
:101120001A8008BD088201200A820120A37C0208DF
:10113000067D02085E7C02080E82012010820120DA
:10114000034690F87A0018B1586803681B6818477E
:1011500070470000012108B50022084608F0A4FDF0
:101160000A4B186028B90A4B0A4A28210A4825F078
:101170007DFC00220421012008F035FE074B186099
:1011800018B9074B034A2C21F0E708BDC003002023
:10119000497D0208927D0208C17D0208BC0300203F
:1011A000277E0208024B4FF0FF31186808F0C6BDD9
:1011B000C0030020014B186808F0ECBDC0030020FC
:1011C000024B0021186808F0B9BD00BFC003002021
:1011D000FFF7F0BF03480449006800231A4608F0EF
:1011E0003DBE00BFBC0300200400002013B5084C26
:1011F00000231A4601A9206808F061FE20684FF01C
:10120000FF33002201A908F05AFE02B010BD00BF52
:10121000BC03002003685B6C18470120704703681B
:101220009B6A1847FEE740F2EF307047054B0360BA
:10123000054B4FF08062C3F88820BFF34F8FBFF398
:101240006F8F7047A08C020800E100E010B50446E3
:101250004FF45A61FFF7EAFF204624F0CBFC20460A
:1012600010BD000082B0002301930E4B1A6B42F4B4
:1012700000021A631A6B02F400020192019A1A69C1
:1012800042F400021A611A6922F400021A61064B44
:10129000064A1A61064A5A61064B4FF080629A600C
:1012A00002B0704700380240307300200515000876
:1012B0002512000800E100E008B50A2809D8DFE897
:1012C00000F006100E080808081010101000022088
:1012D00008BD054B054A0648902125F0C7FB0020B4
:1012E000F6E70120F4E700BF697E0208847E020869
:1012F000CF7E020838B50C46887FFFF7DDFFA58A50
:10130000E28A164B2169586342EA05425A64628BAD
:10131000D963521B1A642568082D0ED19A611A618F
:101320005862207F0E4A42EA0062DA61E2681A627D
:101330000C4A5961D9601A6038BD0022D8611A611F
:10134000E1680A0A480902F4784200F4FC600243AA
:10135000C1F3C4010A439A63034AECE700B00240B8
:1013600009000100012302000123030008B50B2836
:101370000BD8DFE800F00612100A0A0A0A0808086B
:101380000808022008BD0520FCE7054B054A064871
:101390006F2125F06BFB0020F4E70120F2E700BF8E
:1013A000697E0208337F0208CF7E02082DE9F041F2
:1013B00091F81D800C464046FFF7D8FFA77F0546F1
:1013C0003846FFF7D3FF06463846FFF775FFA18A78
:1013D000628B444B521A1A649A61228B521A1A6118
:1013E000E28A586342EA01425A6421696268D96319
:1013F000DA602068802828D0227F0FD8202867D084
:10140000402865D004281AD0364B45EA026545F4D9
:101410000035B845DD6161D0334A44E0B0F5807FE6
:1014200004D0B0F5007FEFD1304800E0304840EA0A
:101430000262DA61E2681A625E62596132E045EA8C
:10144000026242F40032DA61F6E7A068021DDA6255
:10145000227F45EA026545F40035DD615E6259612F
:10146000017841B1012921D0224B234A23484FF46E
:101470008D7125F0FBFADA69418822F47F42013947
:1014800022F0100242EA0122DA610121154BDA69E9
:1014900042F02002DA61DA699206FCD410229A60E6
:1014A0000029B9D0164A1A60BDE8F081B2F1FF01F7
:1014B000DA69408822F47F4200F1FF3022F0100206
:1014C00042EA002242F0100218BF0121DA61DDE792
:1014D00045EA0262034B42F40032B4E742F20132C1
:1014E000E1E700BF00B00240012301000900020053
:1014F0000A0002007D7F0208977F0208CF7E020863
:1015000001230200024B1B68586803685B69184797
:101510001482012070B5044625460A4B0C30002683
:1015200060602672667245F8203B602229460CF006
:1015300069F804F55A63EE6024359D42FBD12046DC
:1015400070BD00BFA08C0208034B1A68D207FCD400
:1015500023229A60704700BF00B00240704700002D
:1015600030B50F4C2568ED07FCD423250904A56090
:1015700041F001010225FF2B65636164E0630AD03D
:101580000849656241EA0363E361074B22626061D7
:10159000E060236030BDE561039BA363034BF8E784
:1015A00000B0024009000100010002000100030038
:1015B00030B50E4C2568ED07FCD423251204A56038
:1015C00042F001020225FF2B65636264E063E16083
:1015D00008D01B0643F00213E361054B65626061AE
:1015E000236030BD034BE3610123F9E700B0024003
:1015F00001000200020002FF30B50B4C2568ED0728
:10160000FCD4232512041B06A56043F400330225F5
:1016100042F0010265636264E063E160E361034BF1
:1016200065626061236030BD00B0024001000200CD
:101630000120704714207047142303FB0100083079
:101640007047142303FB01000830704701207047E6
:1016500045F68840704745F6884303FB0100083093
:10166000704745F6884303FB0100083070470120AE
:1016700070471020704700EB01100830704700EBF6
:10168000011008307047084601F034BE10B5034B16
:10169000036004460AF067FB204610BD588D02081F
:1016A00010B50446FFF7F2FF20461C2124F0A2FAF1
:1016B000204610BD10B5034B036004460AF053FBEF
:1016C000204610BD248D020810B50446FFF7F2FF36
:1016D000204645F6904124F08DFA204610BD0000CA
:1016E00010B5034B036004460AF03DFB204610BDD5
:1016F000F08C020810B50446FFF7F2FF20461821CF
:1017000024F078FA204610BD10B5094B036004465A
:1017100000F5B9403C30FFF7B9FF04F12C00FFF7AA
:10172000C9FF04F11400FFF7DBFF204610BD00BF26
:101730008C8D020808B50248FFF7E6FF08BD00BF20
:101740009C12002010B50446FFF7DEFF204645F648
:10175000386124F04FFA204610BD00002DE9F34116
:1017600001F0F2F8054601F0F3F8002401462346A3
:1017700028462246009415F08BF9274B274A1A6019
:10178000204604F0BBF8264D264B274A27489A608E
:1017900015F0E6F82B68BFF35B8FDB0736D42846DD
:1017A00024F02AFA90B3224C224F234B236007F1F6
:1017B000200604F1140004F12C086060C4F80880CD
:1017C000E76026610AF0D0FA1C4B636140460AF0DC
:1017D000CBFA1B4BE36238460AF0C6FA04F5A04385
:1017E00003F6D840174AC3F8BC2C04F017FE224673
:1017F00007F11C01304604F03DFC304601F07AFD53
:10180000114825F051F9284624F002FA0F4802B099
:10181000BDE8F041FFF7E4BB7882012048040020D6
:1018200098120020680400204C04002008000020CA
:101830009C120020586F00208C8D0208F08C02084A
:10184000248D0208588D020835170008C4030020B3
:10185000704700000148FFF7D1BB00BFC403002060
:1018600070B5264E264C274D274B23603046FFF798
:1018700051FE28461AF012FA244812F01FFD244B9C
:101880002448DC6000224FF48071C3E9121222491F
:101890001A86C3E91A12214983F85820C3E91E01A8
:1018A0001F49C3F880101F491F480B60F021C3E98E
:1018B0000422C3E90622C3E90822C3E90A22C3E9D4
:1018C0000E22C3E91022C3E91422C3E917225A6683
:1018D00083F870205A67C3E90165018013480180CD
:1018E00013484FF4A07101801248018012490A7018
:1018F000012283F83420114A1A6070BDF4040020DC
:101900009412002068040020C87B02084C040020C8
:10191000C403002000000101010000010004500088
:101920001A00140014820120088201200E82012076
:101930000A820120108201200C820120B48B02084F
:101940000148FFF773BC00BFF4040020002070477B
:1019500081807047C1807047018170474181704725
:101960007047704770477047704710B4C488036869
:10197000121B84885B6D091B12B25DF8044B09B21F
:1019800018474FF6FF7383814FF0FF3303621368EC
:10199000C36110607047002070478B8883800120EE
:1019A0007047704780F82610704790F826007047FF
:1019B00010B50022B1F90840B1F90A100280428046
:1019C0008480C18010BD0022028042808280C2805B
:1019D00070470177704780ED080A704780F824103F
:1019E000704780F825107047012070479830704785
:1019F0008C307047843070477047704770470000E4
:101A0000034B902283F85A2383F85823704700BF72
:101A100000E100E0094A0A49D3680A48C3F30A030F
:101A2000013B9BB20B801169C1F30A0101390180AE
:101A30001364536B43F00103536370470068014024
:101A4000D6700020D4700020014BD3F8AC00704752
:101A500000680140024B0122C3F8AC105A62704783
:101A60000068014010B52C21044624F0C3F820463C
:101A700010BD10B5BC21044624F0BCF8204610BDB2
:101A800070B504460AF0EBFE23689D6E11F03CF938
:101A900001462046A8472368054AD3F88C502046C3
:101AA000AC460023BDE87040A2F51631604700BF88
:101AB00000B004D00AF0BABE0AF0C4BE0AF080BE7C
:101AC0000AF0EFBF90F8252012B103685B69184750
:101AD000704790F825201AB190F8242002B11860C0
:101AE00070470000034B4FF080629A604FF08072A5
:101AF0009A60704700E100E0084B4FF08062C3F845
:101B00008820BFF34F8FBFF36F8F4FF08072C3F801
:101B10008820BFF34F8FBFF36F8F704700E100E065
:101B200070B50023124E8380124B0360336893F824
:101B3000582005460AB1D86C00B998680368DB6A7A
:101B400098473368B0FA80F4D86C640930B1036800
:101B5000DB6A9847002808BF44F001042CB9064B03
:101B6000064A07482C2124F081FF284670BD00BF9B
:101B700014820120A08D0208D57F0208338002085C
:101B80006C80020870B5254E3568BFF35B8F15F089
:101B9000010540D1304624F02FF800283BD0204CDE
:101BA000204B256104F13400C4E90035C4E9025535
:101BB000E584A562A58512F066FE04F158000DF0DB
:101BC00023FB194BA3652046184B40F8843BFFF7D5
:101BD000A7FF174BC4F884302433C4F88C304FF47B
:101BE000C803C4E928350023C4F8AC30C4F8B030C9
:101BF000C4F8B430C4F8B8300E480F4BC4F8905055
:101C0000C4F89C50C4F8A850C4F8983024F04CFF95
:101C1000304623F0FDFF024870BD00BFD8700020A1
:101C2000DC700020709D0208C08D0208388E02080A
:101C3000249D0208FD190008C49C020838B5184C00
:101C400023685BB3174B184A1B6C11888B4216D163
:101C5000164B198806F0BCFD236893F86A2000250E
:101C6000013283F86A2083F87C50FFF7B3FA2068CA
:101C70000BF072FB2846BDE83840FFF7F3B806F0DA
:101C8000A7FD2468236820461B6A9847012384F82F
:101C90007C300020BDE83840FFF70EB938BD00BFEA
:101CA0001482012000680140D6700020D47000200A
:101CB00007B5064BADF806001B68054801220DF17B
:101CC000060107F025FB03B05DF804FB0C000020C3
:101CD000DC71002008B5642007F0DAFFFBE70000A4
:101CE00030B595B0102200210AA825F0C6F81422BC
:101CF000002103A825F0C1F800241E4B01941A6CA2
:101D000042F080521A641B6C03F080530193019BD4
:101D1000194B02941A6842F440421A601B6803F49B
:101D2000404302930122029B4FF48033CDE9082304
:101D300002254FF480030821CDE90E534FF4B4730C
:101D4000CDE9101308A804231393129506F098FD0B
:101D500006F05CFD0F23CDE903354FF4A0504FF49E
:101D60008053CDE90603052103A8059406F064FF1E
:101D700015B030BD003802400070004080B59AB008
:101D800005F098FCFFF7ACFF142200210DA825F008
:101D900074F80024C84B00941A6BC848C84DDFF88B
:101DA000548342F010021A631A6B02F01002009280
:101DB000009A01941A6B42F004021A631A6B02F043
:101DC00004020192019A02941A6B42F020021A63F3
:101DD0001A6B02F020020292029A03941A6B42F0EC
:101DE00080021A631A6B02F080020392039A049431
:101DF0001A6B42F001021A631A6B02F0010204929C
:101E0000049A05941A6B42F002021A631A6B02F0EC
:101E100002020592059A06941A6B42F040021A6378
:101E20001A6B02F040020692069A07941A6B42F06F
:101E300008021A631B6B03F00803224607933C2138
:101E4000079B05F0BDFE9F480122022105F0B8FE68
:101E500022469C48042105F0B3FE22469A484FF4DE
:101E6000405105F0ADFE01263C23CDE90D369348E7
:101E70000F9403230DA9109305F0B8FD4FF4005300
:101E800090480F940DA90227CDE90D3405F0AEFD61
:101E90008C480DA9CDE90D76CDE90F4405F0A6FDDE
:101EA000042388480DA9CDE90D36CDE90F4705F08B
:101EB0009DFD0DA94FF440538348CDE90D36CDE982
:101EC0000F4705F093FD8148814B036005F084FCCA
:101ED000DFF824E27F4B2C62C5E900E328464FF48B
:101EE0008043C5E90434C5E90244C5E9064406F067
:101EF00075F81021284606F0B9FA21462846764D95
:101F000006F0D3FA4FF48273C5E900834FF40079E9
:101F10001823C5E9069328460A23C5E90244C5E902
:101F20000444C5E90844AC62EB6207F095F98F23DD
:101F30002246394663488DF824308DF8344005F048
:101F40003FFE32464FF47A7309A9284607F0E0F9BC
:101F50004FF47A7332460DA9284607F085FB3246C6
:101F6000394658485D4D05F02BFE9DF83430D32B93
:101F700004BF5B4B1E705B4B0126C5E90036102287
:101F800040230024C5E904234FF4C073C5E9063497
:101F90004FF40063C5E908344FF4005302274FF0B3
:101FA0000409AB624FF0030A07230DA92846CDE9C7
:101FB0000D73CDE90F934FF00808C5E90249CDE94B
:101FC00011A7139707F02CF84FF6FF7209A92846BE
:101FD000CDE90A86089409960C9407F041F830463A
:101FE00005F094FB4FF6FF7209A92846CDE9097860
:101FF000CDE90B6407F034F84FF6FF7209A92846C3
:10200000CDE909A8CDE90B9407F02AF84FF40C7339
:102010000893089B0C934FF6FF7209A92846CDE957
:1020200009980B9607F01CF840F26A51284607F011
:1020300035F834220DEB0200214624F01EFF2A4D14
:102040002A4B2C61C5E900340923C5E905361D2357
:10205000C5E9073A40F20D1140F24313C5E90913EF
:1020600040F2171040F24713C5E90B032846C5E9B3
:102070000244AC8685F8364006F0B2FAFF214FF4F0
:10208000806CF022CDE912140521CDE914C14FF482
:10209000A0730DA9CDE90E24CDE9164228462246AB
:1020A000134D1893CDE910370D94ADF864408DF8B9
:1020B000664006F060FB21E000380240001002405C
:1020C000DC72002000080240000C02407073002007
:1020D00000300240A0860100DC710020A8710020C1
:1020E0009C710020400100A0347200200068014073
:1020F0009871002000500140005C0040174B2B609D
:102100001B6898472B68164DDB689847154B284687
:10211000C5E90034C5E90274C5E90A47C5E90C44BC
:1021200005F06AFB3146284605F01CFCFEF7CEFDA3
:10213000FEF7CBFD07F03CFD0B4A0C48214607F0AB
:1021400063FD0B4B0B4A186021460B4807F05CFD02
:102150000A4B186007F03EFDFEE700BF18000020A4
:102160003073002000B00240A08E0208D51C000889
:10217000A47100207C8E0208DB0C0008A0710020F6
:10218000704770477FB5094B8DF817201B68029385
:102190000DF117020123009201930A4601460448FB
:1021A00005F0C4FF07B05DF804FB00BF100000207D
:1021B000DC7200207FB500238DF81730084B1B68B8
:1021C00002930A4601230DF1170100910193014684
:1021D000044806F03BF89DF8170007B05DF804FBD3
:1021E00010000020DC7200201FB5084C246800920B
:1021F000CDE901340A4601230146054806F026F8D8
:10220000003818BF012004B010BD00BF100000202E
:10221000DC72002005F07ABA10B5064C0022204688
:10222000042105F0CDFC20460122BDE81040042128
:1022300005F0C6BC0008024038B50B4D044601222B
:102240000A484FF4005105F0BBFC00220421284647
:1022500005F0B6FC2046FFF72BFD28460122BDE81D
:102260003840042105F0ACBC00080240000C0240DC
:1022700038B50B4D044600220A484FF4005105F0D2
:102280009FFC00220421284605F09AFC2046FFF717
:102290000FFD28460122BDE83840042105F090BC1E
:1022A00000080240000C0240F7B5144E144F0546DA
:1022B0000C4630460022042105F082FC00224FF437
:1022C0000051384605F07CFC2846FFF7F1FC0D4B29
:1022D0000D481B68224601A907F0C6F938460122BD
:1022E0004FF40051019C05F06BFC304601220421A3
:1022F00005F066FC204603B0F0BD00BF00080240B8
:10230000000C02400C000020DC71002005F0FEB93A
:102310000268034B9A4201D105F0E6B9704700BF4D
:10232000001000407047000082B00E4B0022009267
:10233000596C41F480415964596C01F48041009119
:1023400000990192196C41F0805119641B6C03F0E3
:1023500080530193019B0F216FF0010002B005F043
:10236000FBB900BF003802400268094B9A4282B0B4
:102370000BD100230193074B1A6B42F480521A636E
:102380001B6B03F480530193019B02B0704700BFA5
:10239000003002400038024007B50F4B02689A42F5
:1023A00016D10022A3F5F0430192196B41F400010C
:1023B00019631B6B03F40003019305215A20019B51
:1023C00005F0CAF95A2003B05DF804EB05F0F6B940
:1023D00003B05DF804FB00BF00B002402DE9F043FC
:1023E000044689B01422002103A824F046FD226887
:1023F000244B9A4243D1244C244800250095236B5A
:1024000043F004032363236B03F004030093009B56
:102410000195236B43F001032363236B03F0010356
:102420000193019B4FF012094FF400734FF0010824
:102430000327042603A9CDE90339CDE905870796CB
:1024400005F0D4FA4FF480731148079603A9CDE93B
:102450000339CDE9058705F0C9FA0295236C43F4E9
:1024600000032364236C03F400030293029B236A9A
:1024700043F400032362236A23F40003236209B0B8
:10248000BDE8F083005C00400038024000080240D4
:1024900000000240F0B599B004461422002107A8BC
:1024A00024F0EBFC30220DEB0200002124F0E5FCCF
:1024B00022685E4B9A4240F0B78008230C93C023F9
:1024C0001093042312930CA84FF40033159306F0D5
:1024D0007BFC08B1FFF726FF554B564800240094BB
:1024E0005A6C42F080625A645A6C02F08062009228
:1024F000009A01941A6B42F020021A631A6B02F0E0
:1025000020020192019A02941A6B42F001021A63AE
:102510001A6B02F001020292029A03941A6B42F0C3
:1025200002021A631A6B02F002020392039A0494E5
:102530001A6B42F040021A631A6B02F040020492D6
:10254000049A05941A6B42F004021A631A6B02F0A3
:1025500004020592059A06941A6B42F008021A6367
:102560001B6B03F00803069302250E26069B0B96B1
:102570004FF4806307A9CDE90735CDE9094505F09A
:1025800035FA41F658032C480B9607A9CDE90735D3
:102590000927CDE9094505F029FA032327480B97B8
:1025A00007A9CDE90735CDE9094505F01FFA4FF434
:1025B000706322480B9607A9CDE90735CDE9094597
:1025C00005F014FA4FF40C631D480B9607A9CDE9EA
:1025D0000735CDE9094505F009FAC02319480B96DE
:1025E00007A9CDE90735CDE9094505F0FFF908232D
:1025F00015480B9607A9CDE90735CDE9094505F042
:10260000F5F94FF4A0530E480B9707A9CDE907350C
:10261000CDE9094505F0EAF958202246052105F0E3
:102620009BF8582005F0CAF819B0F0BD00680140C9
:102630000038024000140240000002400004024042
:102640000018024000080240000C024010B5044689
:1026500088B01422002103A824F00FFC2268144B38
:102660009A4223D103F56843002101915A6C114825
:1026700042F480125A645A6C02F480120192019A58
:1026800002911A6B42F020021A631B6B03F02003C5
:102690000293029B4FF4607202230321CDE90323CE
:1026A0000523CDE9061303A905F0A0F908B010BD74
:1026B00000500140001402402DE9F04186B0002393
:1026C00003932B4B1C68002C4FD14FF00108C3F82B
:1026D0000080284B00949A6B274842EA08029A63CC
:1026E0009B6B03EA08030093022703260C25009B3B
:1026F00001A94FF63F03CDE90137CDE9046505F0A7
:1027000075F91E48059501A9CDE90187CDE9034674
:1027100005F06CF948F233131948059501A9CDE984
:102720000137CDE9034605F061F94FF6837315488B
:10273000059501A9CDE90137CDE9034605F056F924
:102740004CF203731048059501A9CDE90137CDE995
:10275000034605F04BF960230C48059501A9CDE926
:102760000137CDE9034605F041F906B0BDE8F08137
:102770007873002000380240001402400008024034
:102780000018024000100240000C02400004024009
:1027900070B588B000230293204B1A6C42F01002EF
:1027A0001A641B6C03F010030293054601A903A8E9
:1027B000029B06F0EBFA069B4BBB06F0D7FA184ECD
:1027C000184B336040F2E733F360174BB0FBF3F381
:1027D000013B7360304600233361B360B36107F09F
:1027E00013F9044680B9304606F0E4FF044658B9B0
:1027F000362004F0E3FF0F2D0DD82246294636205F
:1028000004F0AAFF094B1D60204608B070BD06F019
:10281000ADFA4000D3E70124F6E700BF00380240DC
:102820007C7300200010004040420F008000002018
:102830007047FEE7FEE7FEE7FEE77047014806F057
:10284000F7BF00BF7C730020014805F037BF00BF11
:1028500034720020014804F0FBBF00BF3073002039
:102860000120704708B524F0ABFB162303604FF03E
:10287000FF3008BD08B524F0A3FB16230360FEE774
:1028800070B50D4614460E46731B9C4201DC204673
:1028900070BDAFF3008006F8010BF5E770B50D468B
:1028A00014460E46731B9C4201DC204670BD16F890
:1028B000010BAFF30080F5E74FF0FF3070474FF4A6
:1028C00000534B6000207047012070470020704784
:1028D0000A4A116808B5034609B909491160106828
:1028E000694603448B4206D924F06AFB0C2303603B
:1028F0004FF0FF3008BD1360FCE700BFC473002039
:10290000588F0120704710B50421044623F072F956
:10291000204610BD08B5032913D8DFE801F00206F0
:102920000A0E03F037F8006808BD03F033F840687A
:10293000FAE703F02FF88068F6E703F02BF8C06899
:10294000F2E70020F0E7000000487047D88E020848
:102950001920704713B5002451B1036801948DF814
:10296000034001AA9C680DF10303A04702B010BD0B
:102970000846FBE7C0897047008A7047C0887047E7
:1029800080887047807A00F07F007047807AC009A5
:1029900070470020704700009FED010A704700BF9C
:1029A00000000000806A7047704730B5036885B04A
:1029B0006D460181D3F88430014604462846984785
:1029C00095E807003C3484E8070005B030BD30B519
:1029D000036885B06D464181D3F8843001460446D2
:1029E0002846984795E807003C3484E8070005B07E
:1029F00030BD0022028042808280C280704780F811
:102A00003610704770B5036804461B6B154698472F
:102A10002368294620465B6EBDE8704018470020B9
:102A20007047806C704770477047704770477047B9
:102A3000A0F850107047B0F850007047818570477B
:102A4000808D704710B50821044623F0D3F8204646
:102A500010BD10B54C21044623F0CCF8204610BD23
:102A600010B56021044623F0C5F8204610BD10B50E
:102A70003C21044623F0BEF8204610BD10B54FF4AB
:102A8000B471044623F0B6F8204610BD08B590F89E
:102A900028300BB1FFF716F808BD08B5FFF712F89C
:102AA00008BD0000036870B55E6B124B1B680446DE
:102AB0008DB22BB9104B114A6C21114823F0D6FF6F
:102AC0001049828D0988914203D80F4B0B4A6D2122
:102AD000F3E713F812200D4B1B6853F8220003682C
:102AE0001B6B9847291A3346204609B2BDE870404F
:102AF000184700BF6C820120E3800208258102088C
:102B00006081020870820120A7810208748201207E
:102B100090F84C3070B50446002B4AD0B0F84E0007
:102B2000B4F85030013080B29842A4F84E0040D33F
:102B3000B4F85450B4F85620A66D521BC01A12B205
:102B4000B4F85230002180B2B04794F836200544E2
:102B5000ABB22DB2AA4205D02DBB2046FEF7B2FF84
:102B600084F83650B4F85030B4F85210B4F84E200F
:102B70000B449A421DD3002384F84C30A4F8523001
:102B800010F0C2F82146043010F00BF9E06D80B16E
:102B90000368DB68984760B1E06D036821469B6875
:102BA000BDE87040184784F836302046FEF78AFFAB
:102BB000D8E770BD90F8293070B50446002B40D09E
:102BC000408DA38D013080B29842608539D3258E27
:102BD000628E666B521BC01A12B2E38D002180B266
:102BE000B04794F828200544ABB22DB2AA4205D0D4
:102BF0000DBB2046FFF74AFF84F82850A38DE18DD6
:102C0000628D0B449A421CD3002384F82930E3855B
:102C100010F07AF82146043010F0C3F8A06B80B1B0
:102C20000368DB68984760B1A06B036821469B6826
:102C3000BDE87040184784F828302046FFF726FF8B
:102C4000DCE770BD00224FF0FF31C0E90021826057
:102C500070470000074A02600022C0E90122C0E973
:102C60000322C0E90522C0E907224FF48072828462
:102C7000704700BF64A2020870B5036804461B6B6E
:102C8000154698472368294620465B6BBDE870408F
:102C90001847000038B5262204460D46002124F0CE
:102CA000ECF82046FFF7D6FF064B23602B88E38421
:102CB000FF23204684F8283029460DF01FFC2046CB
:102CC00038BD00BF94A1020810B526220446002199
:102CD00024F0D3F82046FFF7BDFF0A4B23600A4BD0
:102CE000A3624FF6FF73A3854FF47F020023C4E96C
:102CF0000C3223874FF0FF32C4E91023E3632046F0
:102D000010BD00BFC09F0208D49002082DE9F04F0B
:102D1000044687B026460025FFF79CFF7B4BA56243
:102D200046F82C3B4FF6FF7704A9304604F16809BA
:102D3000ADF81070FFF7AEFF754BE36204A9ADF874
:102D40001070484604F1940784F85550A4F8565082
:102D5000A4F858506566FFF79DFF3846FFF7B4FFAB
:102D600004F1E0086B4BC4F89430C4F8DC504046E2
:102D7000FFF7AAFF684BC4F8E0304FF028132A464B
:102D80003046A3602946C4F8285184F82C51A4F891
:102D90002E51A4F83051C4F83C51FFF76DFF0B23BE
:102DA000304604A9ADF810300DF0A8FB314620469E
:102DB00009F06AFA192248462946FFF75DFF0C23FD
:102DC000484604A9ADF810300DF098FB494620465E
:102DD00009F05AFA192229463846FFF74DFFD4F870
:102DE0009430DFF854B19B6B0F2138469847D4F8E4
:102DF00094300F21DB6B384698474FF07F43C4F87F
:102E0000C430D4F89430A4F8C8506E46D3F8843057
:102E100039463046984796E8070004F1D00383E826
:102E20000700DBF8003004F5A0792BB93B4B3C4A96
:102E300060213C4823F01AFEDFF800A1BAF8003008
:102E4000062B03D8384B364A6121F2E7374B06216F
:102E5000186802F08FFD364A03460A21484613F0EF
:102E600071FD0823C4F8DC9004A93846DFF8D0903F
:102E7000ADF81430CDF810900DF014F93946204615
:102E800009F002FA012203214046FFF7F5FE294B23
:102E9000C4F81031D4F8E030A4F814513046D3F817
:102EA00084304146984796E8070004F58E7383E81E
:102EB0000700DBF8003004F5AA76002BB6D0BAF88C
:102EC0000030012BBED9194B0121186802F052FDC8
:102ED000174A03460A21304613F034FD4046C4F831
:102EE00028610DF0BFF8072304A94046ADF814305F
:102EF000CDF810900DF0D6F8204684F805514146E3
:102F000009F0C2F9204607B0BDE8F08F80920208B0
:102F100074910208E4900208E8910208E380020834
:102F2000E581020860810208A781020878820120F9
:102F300030820208008CFFFF6C8201207082012029
:102F4000D49002087047704700F598730868496884
:102F500003C37047704770474160704770477047C0
:102F6000064BC0F84C310023C0F8503100F5A27375
:102F7000C0F84801C0F84031704700BFBD300008BC
:102F8000012303727047704770477047704770475E
:102F900010B4C26841685410034601EB6200D207C6
:102FA00048BF0A599B685DF8044B48BFD35818477F
:102FB0000346406830B19A681AB9D86800F0010039
:102FC00070470120704710B51421044622F012FE0C
:102FD000204610BD10B50C21044622F00BFE204601
:102FE00010BD10B51021044622F004FE204610BD8D
:102FF00010B54FF4AE71044622F0FCFD204610BD22
:1030000010B50FF081FE0368BDE81040DB6B184778
:1030100070B50446B2B01E49C02202A823F0FDFFDD
:10302000237C2F2B03D90123237232B070BD33B917
:10303000184B1B781BB10FF067FE0FF06BFE0225DB
:10304000237C302BF1D832AA02EB8303E68953F8B4
:10305000C03C608993FBF6F206FB123313FB00F3CE
:10306000ADF804006068A189ADF800300368ADF8E0
:10307000061012FB01F21B69ADF802206946984761
:10308000237C012D03F101032374CED00125D7E762
:10309000C07A02081282012010B50446D0F840011F
:1030A00058B10368DB68984738B1D4F84001036829
:1030B0009B6898470023C4F8403110BD2DE9F14FBB
:1030C000D0E9556A0746B06803681B6A9847B0F5AF
:1030D000907F05D2444B454AA321454823F0C6FCC6
:1030E000706803681B6A98470F2803D8414B3F4A12
:1030F000A421F2E7F06803681B6A98470B2803D8FD
:103100003D4B3A4AA521E8E70FF0FEFDDFF8F090CD
:1031100004300FF05FFED9F8000010B10368DB68DF
:103120009847D9F8000010B103681B689847DFF88A
:10313000D480D8F8000010B103685B699847D7F8CD
:103140003C0110B103685B689847D8F8000010B1E3
:1031500003681B689847D7F83C0110B103689B6867
:103160009847F068036800215B6A98474FF0000BAE
:10317000224BC0F804B0044680F808B00360B06881
:10318000036859465B6A9847054603F0FDFE706880
:10319000036859465B6A98472946064603F0D2FE03
:1031A000331DC7F83C61C9F80040C8F80050CAF8A0
:1031B00000302B68C6F808A02846DB68EE63984705
:1031C000336830461B6898472146284612F08CF831
:1031D000236820461B69984723685B69204601B035
:1031E000BDE8F04F184700BF33820208C1820208D1
:1031F00093830208DA8302087D8402088093020820
:103200005C82012058820120044B1B6893F85820EF
:103210000AB1D86C00B99868704700BF14820120C9
:1032200000230F4A43600372026003740D4A0E4B81
:1032300012881B8893420BD9073306210532DB081D
:10324000B2FBF1F2082192B243818281C1817047C1
:10325000073205330621D208B3FBF1F39BB2F3E743
:10326000A49302080A82012008820120F8B51746BB
:1032700004460E460FF07CFE124B1C60124B23607E
:10328000124B0025C4E95135114BC4E95355186858
:10329000036801219B68C4E94F55C4E955769847F6
:1032A000284602F02BFBFFF7AFFF1AF0A0FBFFF759
:1032B000ABFF1AF017FCFFF7A7FF1AF01FFC204620
:1032C000F8BD00BF688201202C9302081493020805
:1032D00014820120064BC0F84C310023C0F8503155
:1032E00000F5A273C0F84801C0F84031704700BF34
:1032F0007D380008064BC0F84C310023C0F850312F
:1033000000F5A273C0F84801C0F84031704700BF13
:10331000BD300008064BC0F84C310023C0F85031D6
:1033200000F5A273C0F84801C0F84031704700BFF3
:1033300045370008064BC0F84C310023C0F8503127
:1033400000F5A273C0F84801C0F84031704700BFD3
:103350000D360008064BC0F84C310023C0F8503140
:1033600000F5A273C0F84801C0F84031704700BFB3
:10337000D5340008064BC0F84C310023C0F850315A
:1033800000F5A273C0F84801C0F84031704700BF93
:103390009D33000803685B6A184700002DE9F04779
:1033A000D0E9556A0746B06803681B6A9847B0F5CC
:1033B000907F05D2404B414AA321414823F056FB60
:1033C000706803681B6A98470F2803D83D4B3B4A37
:1033D000A421F2E7F06803681B6A9847132803D812
:1033E000394B364AA521E8E70FF08EFCDFF8DC9078
:1033F00004300FF0EFFCD9F8000010B10368DB686F
:103400009847D9F8000010B103681B689847DFF8A7
:10341000C080D8F8000010B103685B699847D7F8FE
:103420003C0110B103685B689847D8F8000010B100
:1034300003681B689847D7F83C0110B103689B6884
:1034400098470021F068FFF7A5FF0446FFF7E8FE64
:10345000B068036800215B6A9847054603F06CFE7C
:103460007068036800215B6A98472946064603F0A6
:1034700041FE331DC7F83C61C9F80040C8F8005050
:10348000CAF800302B68C6F808A02846DB68EE634F
:103490009847336830461B6898472146284611F004
:1034A00023FF236820461B699847236820465B69F1
:1034B000BDE8F047184700BF3382020820850208A4
:1034C00093830208DA8302087D8402085C8201206B
:1034D000588201202DE9F047D0E9556A0746B068C7
:1034E00003681B6A9847B0F5907F05D2404B414A6C
:1034F000A321414823F0BAFA706803681B6A984711
:103500000F2803D83D4B3B4AA421F2E7F06803683B
:103510001B6A9847132803D8394B364AA521E8E798
:103520000FF0F2FBDFF8DC9004300FF053FCD9F819
:10353000000010B10368DB689847D9F8000010B1AB
:1035400003681B689847DFF8C080D8F8000010B106
:1035500003685B699847D7F83C0110B103685B6862
:103560009847D8F8000010B103681B689847D7F84F
:103570003C0110B103689B6898470021F068FFF791
:1035800009FF0446FFF74CFEB068036800215B6A40
:103590009847054603F094FD7068036800215B6A54
:1035A00098472946064603F069FD331DC7F83C617C
:1035B000C9F80040C8F80050CAF800302B68C6F8B7
:1035C00008A02846DB68EE639847336830461B68DE
:1035D00098472146284611F087FE236820461B693C
:1035E0009847236820465B69BDE8F047184700BF4D
:1035F00033820208F585020893830208DA83020801
:103600007D8402085C820120588201202DE9F04768
:10361000D0E9556A0746B06803681B6A9847B0F559
:10362000157F05D2404B414AA321414823F01EFAA1
:10363000706803681B6A98470F2803D83D4B3B4AC4
:10364000A421F2E7F06803681B6A9847132803D89F
:10365000394B364AA521E8E70FF056FBDFF8DC903E
:1036600004300FF0B7FBD9F8000010B10368DB6835
:103670009847D9F8000010B103681B689847DFF835
:10368000C080D8F8000010B103685B699847D7F88C
:103690003C0110B103685B689847D8F8000010B18E
:1036A00003681B689847D7F83C0110B103689B6812
:1036B00098470021F068FFF76DFE0446FFF7B0FD64
:1036C000B068036800215B6A9847054603F0BCFCBC
:1036D0007068036800215B6A98472946064603F034
:1036E0006DFC331DC7F83C61C9F80040C8F80050B4
:1036F000CAF800302B68C6F808A02846DB68EE63DD
:103700009847336830461B6898472146284611F091
:10371000EBFD236820461B699847236820465B69B8
:10372000BDE8F047184700BF33820208CA86020886
:1037300093830208DA8302087D8402085C820120F8
:10374000588201202DE9F047D0E9556A0746B06854
:1037500003681B6A9847B0F5907F05D2404B414AF9
:10376000A321414823F082F9706803681B6A9847D7
:103770000F2803D83D4B3B4AA421F2E7F0680368C9
:103780001B6A9847132803D8394B364AA521E8E726
:103790000FF0BAFADFF8DC9004300FF01BFBD9F819
:1037A000000010B10368DB689847D9F8000010B139
:1037B00003681B689847DFF8C080D8F8000010B194
:1037C00003685B699847D7F83C0110B103685B68F0
:1037D0009847D8F8000010B103681B689847D7F8DD
:1037E0003C0110B103689B6898470021F068FFF71F
:1037F000D1FD0446FFF714FDB068036800215B6A41
:103800009847054603F0C0FB7068036800215B6AB7
:1038100098472946064603F095FB331DC7F83C61DF
:10382000C9F80040C8F80050CAF800302B68C6F844
:1038300008A02846DB68EE639847336830461B686B
:1038400098472146284611F04FFD236820461B6902
:103850009847236820465B69BDE8F047184700BFDA
:10386000338202089F87020893830208DA830208E2
:103870007D8402085C820120588201202DE9F047F6
:10388000D0E9556A0746B06803681B6A984745F651
:103890008743984205D8404B404AA321404823F033
:1038A000E5F8706803681B6A98470F2803D83D4BFA
:1038B0003A4AA421F2E7F06803681B6A9847132884
:1038C00003D8394B354AA521E8E70FF01DFADFF898
:1038D000DC9004300FF07EFAD9F8000010B10368D4
:1038E000DB689847D9F8000010B103681B68984757
:1038F000DFF8BC80D8F8000010B103685B69984716
:10390000D7F83C0110B103685B689847D8F800000D
:1039100010B103681B689847D7F83C0110B10368E1
:103920009B6898470021F068FFF734FD0446FFF7D5
:1039300077FCB068036800215B6A9847054602F08F
:10394000D1FD7068036800215B6A984729460646E6
:1039500002F094FD331DC7F83C61C9F80040C8F877
:103960000050CAF800302B68C6F808A02846DB686B
:10397000EE639847336830461B68984721462846CF
:1039800011F0B2FC236820461B6998472368204643
:103990005B69BDE8F0471847338202087488020863
:1039A00093830208DA8302087D8402085C82012086
:1039B00058820120406A7047806A704770478A8841
:1039C0000B8810B5D20A4C88C1699BB251F822000D
:1039D00043EA0443184410BD10B50446BAB1107B45
:1039E00068B1537BD27A1B0203F4E0631A43236A63
:1039F00003EB82031A888A4202D193F9020010BDB8
:103A000005D8013880B204330028F3D1F7E700204D
:103A1000F5E710B52C21044622F0ECF8204610BD45
:103A200030B58BB00446BDF860500895BDF85C50C9
:103A300007959DF8505006959DF84C5005959DF8BA
:103A4000485004959DF8445003959DF840500295C8
:103A50009DF83C500195BDF83850009510F0D0FF0E
:103A6000064B2360159BE361169B2362199B6362DF
:103A70001A9BA36220460BB030BD00BFC89302085A
:103A800070477047704770477047704701767047BE
:103A90008182C2827047704770477047704790F8C4
:103AA0002C304BB100F16C021268C2653BB100F1E1
:103AB00074031B680366704700F16802F4E700F1C5
:103AC0007003F6E730B4C26844685510034604EB4F
:103AD0006200D20748BF62599B6830BC48BFD358C8
:103AE00018470346406830B19A681AB9D86800F0A0
:103AF000010070470120704730B4C2684468551017
:103B0000034604EB6200D20748BF62599B6830BC91
:103B100048BFD35818470346406830B19A681AB96D
:103B2000D86800F0010070470120704790F82D30F0
:103B300080F85A30704710B52021044622F05AF818
:103B4000204610BD10B57821044622F053F82046D7
:103B500010BD10B51021044622F04CF8204610BDCF
:103B600010B51021044622F045F8204610BD70B56E
:103B700005460B8825F8043F0446284613F012F941
:103B8000A071284612F098FF0646284612F0C8FF9A
:103B90000023A360E081A68104F108000EF01CFF61
:103BA000284613F07BF8206170BD10B5044600F282
:103BB0006C6002F0DFF804F6540002F0DBF804F663
:103BC0003C2002F0D7F804F6244002F0D3F804F6C3
:103BD0000C6002F0CFF804F6F47002F0CBF804F5B4
:103BE0008E501C3002F0C6F804F59E50043002F0EE
:103BF000C1F804F5AD500C3002F0BCF804F5BC502F
:103C0000143002F0B7F804F5CB501C3002F0B2F8D3
:103C100004F5DB50043002F0ADF804F5EA500C3046
:103C200002F0A8F804F5F950143002F0A3F804F5F6
:103C300004501C3002F09EF804F50C50043002F0E1
:103C400099F804F513502C3002F094F804F51B5049
:103C5000143002F08FF804F522503C3002F08AF85C
:103C600004F52A50243002F085F804F532500C3067
:103C700002F080F804F53950343002F07BF804F596
:103C800041501C3002F076F804F54950043002F03F
:103C900071F804F550502C3002F06CF804F55850CF
:103CA000143002F067F804F55F503C3002F062F81F
:103CB00004F56750243002F05DF804F56F500C30C5
:103CC00002F058F804F57650343002F053F804F559
:103CD0007E501C3002F04EF804F58340043002F0B0
:103CE00049F804F586406C3002F044F804F58A4047
:103CF000543002F03FF804F58E403C3002F03AF8C0
:103D000004F592402430BDE8104002F033B810B5FD
:103D10000446006B50B10368DB68984730B1206BF4
:103D2000036821469B68BDE81040184710BD0B7919
:103D300070B590F82C6004460D460BB916B170BDF5
:103D4000002EFCD0B3FA83F35B0984F82C3023688F
:103D50002046D3F88C309847236820465B69984703
:103D6000002EECD02B79012BE9D123682046D3F823
:103D70008830BDE87040184738B500F58E73994219
:103D800004460D4602D10368DB6A984704F24454A6
:103D9000A54205D10EF0B8FFBDE83840FFF7AABA3A
:103DA00038BD38B500F20463994204460D4603D18C
:103DB0000EF0AAFFFFF7CEFA04F5C764A54205D1BD
:103DC0000EF0A2FFBDE83840FFF7D4BA38BD70B599
:103DD00004461D46BDF91060FEF74EFF23682946D4
:103DE00020469B6B9847236831462046DB6BBDE835
:103DF000704018474FF480710022818405490160AA
:103E0000C0E90122C0E90322C0E90522C0E9072276
:103E100082627047049C02080022C0E90122C0E9C6
:103E20000322C0E90522C0E907224FF48072828490
:103E3000014A0260704700BF3094020810B5262284
:103E40000446002123F019F82046FFF7E5FF044B54
:103E50002360FF2384F826300023A362204610BD90
:103E600050A00208036880F82D10D3F8903018474E
:103E700038B504460D46FDF753FE0B4BA3602B8867
:103E8000A3810023C4E90433C4E90633A37384F88F
:103E9000203004F108002946FFF769FE034B236038
:103EA0002433A360204638BD98940208E49C02089D
:103EB00010B526220446002122F0DFFF2046FFF73E
:103EC000ABFF0023A36284F82C30012384F8243054
:103ED000044B23604FF6FF7384F83230E38523866A
:103EE000204610BDB8A0020810B5034B036004467D
:103EF000FEF79CFD204610BD0C9702085A4B10B5EA
:103F0000044603600DF006FA04F592402430FFF7F2
:103F1000EBFF04F58E403C30FFF7E6FF04F58A40E6
:103F20005430FFF7E1FF04F586406C30FFF7DCFF0B
:103F300004F583400430FFF7D7FF04F57E501C30B2
:103F4000FFF7D2FF04F576503430FFF7CDFF04F5CC
:103F50006F500C30FFF7C8FF04F567502430FFF7AF
:103F6000C3FF04F55F503C30FFF7BEFF04F5585027
:103F70001430FFF7B9FF04F550502C30FFF7B4FFB1
:103F800004F549500430FFF7AFFF04F541501C30F1
:103F9000FFF7AAFF04F539503430FFF7A5FF04F509
:103FA00032500C30FFF7A0FF04F52A502430FFF701
:103FB0009BFF04F522503C30FFF796FF04F51B50A1
:103FC0001430FFF791FF04F513502C30FFF78CFFEE
:103FD00004F50C500430FFF787FF04F504501C3043
:103FE000FFF782FF04F5F9501430FFF77DFF04F569
:103FF000EA500C30FFF778FF04F5DB500430FFF790
:1040000073FF04F5CB501C30FFF76EFF04F5BC5076
:104010001430FFF769FF04F5AD500C30FFF764FF73
:1040200004F59E500430FFF75FFF04F58E501C30FE
:10403000FFF75AFF04F6F470FFF756FF04F60C6022
:10404000FFF752FF04F62440FFF74EFF04F63C2032
:10405000FFF74AFF04F65400FFF746FF04F26C60D6
:10406000FFF742FF204610BD8095020810B50446B8
:10407000FFF744FF204645F6443121F0BBFD2046C2
:1040800010BD10B50446FFF72FFF20464FF4F47122
:1040900021F0B0FD204610BD70B50446FFF7AAFE22
:1040A0004FF47F432646A3850123002584F824305E
:1040B0000D4B256346F8343B3046FFF7BFFE0B4BF4
:1040C00063632A4629463046C4E91A55C4E91C559B
:1040D0002566A4F86450FEF7CFFD2046314608F06F
:1040E000D3F8204670BD00BFB49402082CA102088A
:1040F00010B40367019B436703685DF8044BD3F872
:104100008C30C0E91A1218472DE9F04F0446C1B0AF
:10411000A246002510F03CFFDC4BE5634AF8403B2B
:104120005046FFF78BFE04F16C0304F19807184624
:104130004FF6FF762F93FFF75DFE3EA93846ADF8A8
:10414000F860FEF7A7FD04F1C40318460893FFF7D3
:1041500051FE04F1F00304F58E793EA918462A9326
:10416000ADF8F860FEF796FD4846FFF795FF04F5B9
:10417000CA7318462893FEF7A7FDC54BC4F89431BF
:1041800004F5F0731846C4F8DC510793FFF732FECC
:1041900004F503733EA9184604F50E782B93ADF889
:1041A000F860FEF777FD404607F0A0FE04F55B736C
:1041B0003EA9184604F5667B3093ADF8F860FFF72A
:1041C00057FE584607F092FE04F2CC433EA918462B
:1041D0003193ADF8F860FFF74BFE04F59F63184686
:1041E0002993FEF771FDAA4BC4F8F83404F2445346
:1041F0001846C4F840552C93FFF74EFF04F2BC5309
:1042000018460993FEF760FD04F2046318462D93E7
:10421000FFF74EFE04F5C76318462E93FFF748FEDE
:1042200004F26C631846329301F05EFC04F654030A
:104230001846339301F058FC04F63C231846349397
:1042400001F052FC04F624431846359301F04CFC6F
:1042500004F60C631846369301F046FC04F6F4733A
:104260001846379301F040FC04F58E531C33184672
:104270000A9301F039FC04F59E53043318460B935E
:1042800001F032FC04F5AD530C3318460C9301F0E9
:104290002BFC04F5BC53143318460D9301F024FC99
:1042A00004F5CB531C3318460E9301F01DFC04F5A6
:1042B000DB53043318460F9301F016FC04F5EA5360
:1042C0000C331846109301F00FFC04F5F953143326
:1042D0001846119301F008FC04F504531C331846EA
:1042E000129301F001FC04F50C53043318461393A8
:1042F00001F0FAFB04F513532C331846149301F024
:10430000F3FB04F51B5314331846159301F0ECFB33
:1043100004F522533C331846169301F0E5FB04F5EF
:104320002A5324331846179301F0DEFB04F5325369
:104330000C331846189301F0D7FB04F53953343386
:104340001846199301F0D0FB04F541531C3318466D
:104350001A9301F0C9FB04F54953043318461B9323
:1043600001F0C2FB04F550532C3318461C9301F0A6
:10437000BBFB04F55853143318461D9301F0B4FBEE
:1043800004F55F533C3318461E9301F0ADFB04F572
:104390006753243318461F9301F0A6FB04F56F53AF
:1043A0000C331846209301F09FFB04F57653343309
:1043B0001846219301F098FB04F57E531C331846F0
:1043C000229301F091FB04F58343043318462393B1
:1043D00001F08AFB04F586436C331846249301F000
:1043E00083FB04F58A4354331846259301F07CFB84
:1043F00004F58E433C331846269301F075FB04F513
:10440000924324331846279301F06EFB04F596433C
:104410000C3318460393FFF73FFE04F5974304332C
:1044200018460493FFF738FE04F597437C3318468B
:104430000593FFF731FE04F598437433184606934D
:10444000FFF72AFE04F5A043124AC3F8242B124AB0
:10445000C3F82C2B114AC3F8342B04F59A40104AA8
:10446000C3F83C2BC3F8284BC3F8305BC3F8384B78
:10447000C3F8405B4FF4616114300CF041FF4FF41E
:10448000A0732A465046009329460BE08095020807
:10449000E490020850950208793D000868950208EA
:1044A000A33D0008F023FFF792FC261D4FF07F4349
:1044B0005146A366304607F0E7FEF02300932A46F4
:1044C0002F982946FFF783FC2F99304607F0DCFE32
:1044D0002A4638462946FEF7CFFB4FF004033846FC
:1044E0003EA9ADF8F8300CF009F8394630465027AF
:1044F00007F0CAFE3B4608980097F022A021FFF77C
:1045000066FC2A462A982946FEF7B6FB14232A9809
:10451000ADF8F8303EA90BF0F1FF2A99089807F0A2
:10452000B3FE3B462A46294604F5A8700097FFF7DC
:104530004EFC294B294A2A494FF0050AA4F880A1CC
:104540000093A3F13313A3F54C534846FFF7D0FD76
:1045500048462946FFF786FC04F5B6432433C4F8E1
:104560004C312A4648462A9329463B460097FFF796
:104570002EFC4946089807F087FE0F223223114689
:1045800028980093FFF723FC164BC4F8C431D4F8E5
:1045900094312899D3F88430A4F8C85138A89847A2
:1045A00038AA07CA04F5E87383E807000E4B1B68B6
:1045B00004F5994909F16C092BB90C4B0C4A60219F
:1045C0000C4822F053FA0C4B1B88022B18D80B4BCB
:1045D000074A6121F4E700BF996633FFCC9900FFD9
:1045E000996600FF2803FFFF6C820120E380020828
:1045F000E58102086081020870820120A78102081B
:10460000D34B0221186801F0B5F9D24A03460A21BA
:10461000484612F097F94FF003013EA8CE4BC4F87C
:10462000DC91ADF8FC10014628983E930BF03AFD62
:104630002899089807F028FE0899304607F024FECC
:10464000A02307980097F0222946FFF7C0FB2A46CF
:104650002B982946FEF710FB3EA801462B98ADF893
:10466000F8A00BF04BFF2B99079807F00DFE4FF0C9
:104670000A09404637220D21FEF7FEFA4046642320
:104680002A462946CDF8009007F017FC2B466422F5
:1046900040462946009507F05BFC0DF1F80C4FF001
:1046A00002006146ADF8F800404607F07FFD0DF1CD
:1046B000F80C4FF003013098ADF8F810614609F09E
:1046C00088FB4046309907F057FB40465246294642
:1046D00007F07DFB52464046642107F05DFB4046F3
:1046E000494607F07DFB4046294607F084FB4046DB
:1046F000494607F096FB4146079807F0C5FD292279
:104700000D215846FEF7B8FA64232A462946584632
:10471000CDF8009007F0D1FB2B466422294658467D
:10472000009507F015FC4FF00200ADF8F8003EA828
:104730000146584607F03AFD4FF003013198ADF8B5
:10474000F8103EA909F045FB3199584607F014FBD3
:1047500052462946584607F03AFB524664215846CD
:1047600007F01AFB4946584607F03AFB29465846D7
:1047700007F041FB2946584607F053FB0798594676
:1047800007F082FD0D2129980F22FEF775FA734973
:10479000A4F82C554FF0FF33C4F82835C4F8383549
:1047A0000B68C4F83455C4F83C5504F59A48002BFE
:1047B0003FF403AF6A490B88042B7FF608AF644AC5
:1047C0000421106801F0D6F8624A03464946404683
:1047D00012F0B8F82998C4F840850BF043FC5E4B02
:1047E00029983E933EA9ADF8FCA00BF05BFC2999FB
:1047F000079807F049FD4FF023080799304607F066
:1048000043FDCDF800802A46294604F5AF601E23FB
:10481000FFF7DDFA534BA4F8A8A50093A3F13313D7
:104820002C98514A5149A3F54C53FFF761FC2A9942
:10483000C4F874151E232C98CDF80080F022822134
:10484000FFF7C5FA2C99304607F01EFD0998F822AB
:104850008B21FEF711FA4FF07F41C4F8EC1538A810
:104860000999A4F8F0550BF083F938A907C904F5A4
:10487000BF6383E80700384A09983E923EA9ADF825
:10488000FC500BF00FFC0999304607F0FDFC04F5D5
:10489000B6482D9829466FF03802FEF7EDF94FF033
:1048A00001093EAA2D98ADF8F4503DA908F134084D
:1048B000ADF8F8900BF054FC2D99C4F82C863046D6
:1048C00007F0E2FC2E9829464FF4A572FEF7D4F9C2
:1048D0003EAA2E98ADF8F4503DA9ADF8F8900BF033
:1048E0003FFC2E99C4F86086304607F0CDFC2A467E
:1048F00032982946FEF7C0F93299304607F0C4FCD9
:104900002A4633982821FEF7B7F93399304607F045
:10491000BBFC2A4634983946FEF7AEF93499304646
:1049200007F0B2FC2A4635987821FEF7A5F93599AB
:10493000304607F0A9FC2A463698A021FEF79CF9DC
:104940003699304607F0A0FC2A463798C8210FE078
:104950007882012030820208D49002086C82012003
:1049600070820120996633FFCC9900FF996600FFA1
:10497000FEF782F93799304607F086FC0A9828221C
:104980002946FEF779F90A99304607F07DFC28227E
:1049900011460B98FEF770F90B99304607F074FC3E
:1049A0000C9828223946FEF767F90C99304607F033
:1049B0006BFC0D9828227821FEF75EF90D993046A0
:1049C00007F062FC0E982822A021FEF755F90E99F7
:1049D000304607F059FC0F982822C821FEF74CF901
:1049E0000F99304607F050FC3A4610982946FEF7DA
:1049F00043F91099304607F047FC3A4611982821B0
:104A0000FEF73AF91199304607F03EFC3A46129803
:104A10003946FEF731F91299304607F035FC3A462F
:104A200013987821FEF728F91399304607F02CFCEB
:104A30003A461498A021FEF71FF91499304607F062
:104A400023FC3A461598C821FEF716F91599304609
:104A500007F01AFC169878222946FEF70DF91699E8
:104A6000304607F011FC179878222821FEF704F948
:104A70001799304607F008FC189878223946FEF757
:104A8000FBF81899304607F0FFFB78221146199879
:104A9000FEF7F2F81999304607F0F6FB1A987822DB
:104AA000A021FEF7E9F81A99304607F0EDFB1B98B4
:104AB0007822C821FEF7E0F81B99304607F0E4FBA6
:104AC0001C98A0222946FEF7D7F81C99304607F01B
:104AD000DBFB1D98A0222821FEF7CEF81D99304659
:104AE00007F0D2FB1E98A0223946FEF7C5F81E99A2
:104AF000304607F0C9FB1F98A0227821FEF7BCF8CA
:104B00001F99304607F0C0FBA02211462098FEF7FF
:104B1000B3F82099304607F0B7FB2198A022C821AE
:104B2000FEF7AAF82199304607F0AEFB2298C8227A
:104B30002946FEF7A1F82299304607F0A5FB2398F5
:104B4000C8222821FEF798F82399304607F09CFBED
:104B50002498C8223946FEF78FF82499304607F08A
:104B600093FB2598C8227821FEF786F825993046D0
:104B700007F08AFB2698C822A021FEF77DF8269927
:104B8000304607F081FBC82211462798FEF774F8DB
:104B90002799304607F078FB039800972A46294664
:104BA0004F233430FFF713F904F58048454BA8F83C
:104BB00070AB0093A3F13313434A03984349A3F521
:104BC0004C53FFF795FA03982946FFF74BF92A460D
:104BD000039800974F235121FFF7F9F803993046C6
:104BE00007F052FB049800972A4629464F23343099
:104BF000FFF7EDF8334BA8F8E8AB0093A3F13313BC
:104C0000314A04983149A3F54C53FFF771FA0498DF
:104C10002946FFF727F9049800974F23A022512136
:104C2000FFF7D5F80499304607F02EFB059800975A
:104C30003B462A4629463430FFF7C9F8214BA8F8ED
:104C400060AC0093A3F133131F4A05981F49A3F5E5
:104C50004C53FFF74DFA05982946FFF703F93B46F9
:104C60003A46059800972946FFF7B1F8059930466E
:104C700007F00AFB069800972A4629464F2334304E
:104C8000FFF7A5F80F4BA8F8D8AC0093A3F13313A6
:104C90000D4A06980D49A3F54C53FFF729FA0698DB
:104CA0002946FFF7DFF8069800974F233A46A121DF
:104CB000FFF78DF83046069907F0E6FA204641B036
:104CC000BDE8F08F996633FFCC9900FF996600FF2D
:104CD00070477047704730B4C26844685510034647
:104CE00004EB6200D20748BF62599B6830BC48BFE2
:104CF000D35818470346406830B19A681AB9D86843
:104D000000F0010070470120704710B510210446E3
:104D100020F070FF204610BD10B54FF4907104468E
:104D200020F068FF204610BD9830884208B505D1B4
:104D30000DF0EAFFBDE80840FEF7FCBA08BD000030
:104D40002DE9F04F044685B0A046002510F020F96B
:104D5000594BE56348F8403B04F16C074046FFF7C8
:104D60006DF84FF6FF76262229463846ADF80C60DE
:104D700022F083F83846FDF76DFF504BE366BDF82F
:104D80000C30A4F8923003A984F89460384604F1FA
:104D900098060BF0B3FB3046FDF75CFF4FF47F4302
:104DA000A4F8C430012304F1CC0984F8BC30444B8E
:104DB000C4F89830C4F8C050C4F8C8504846FFF74B
:104DC0003DF8404BC4F8CC302A4629464846C4E951
:104DD0004055C4E94255C4F8F850A4F8FC50FDF71A
:104DE0004BFF4946304607F04FFA374BC4E944348D
:104DF000364B4FF4A07BC4E946352A462946404647
:104E0000CDF800B0F023FEF7E2FF04F1040A4FF002
:104E10007F43A3664146504607F036FA2A462946A4
:104E20003846FDF729FF172303A93846ADF80C30A3
:104E30000BF064FB3946504607F026FA2A4629460D
:104E40004846CDF800B0F023FEF7C1FF0523A4F8D3
:104E5000FC301F4BC4F8003103F54C533333C4F816
:104E60000431A3F5CC43663BC4F8083103F1331396
:104E700003F54C53D4F89870C4F80C313046FEF763
:104E80000EFE84F8C550D7F890303046984704F5A8
:104E90008873C4F8C8302A46F02329463046CDF836
:104EA00000B0FEF794FF5046314607F0EDF920467A
:104EB00005B0BDE8F08F00BFD095020894A10208AC
:104EC000B49402082CA10208B8950208294D0008E4
:104ED000996600FF7047704770477047704770478A
:104EE000704730B4C26844685510034604EB620052
:104EF000D20748BF62599B6830BC48BFD358184797
:104F00000346406830B19A681AB9D86800F00100C9
:104F100070470120704730B4C2684468551003469A
:104F200004EB6200D20748BF62599B6830BC48BF9F
:104F3000D35818470346406830B19A681AB9D86800
:104F400000F0010070470120704710B510210446A1
:104F500020F050FE204610BD10B51021044620F070
:104F600049FE204610BD10B54FF41571044620F0DF
:104F700041FE204610BD00F1CC03994270B50446B5
:104F80000D4602D10368DB6A984704F5A2739D427F
:104F900003D1236820461B6B984704F5DE739D42BE
:104FA00005D1236820465B6BBDE87040184770BD93
:104FB0006C30884208B505D10DF0A6FEBDE808406A
:104FC000FEF788B908BD00002DE9F04F044687B010
:104FD000A24600250FF0DCFF884BE5634AF8403B12
:104FE00004F16C094FF026085046FEF727FF4246B1
:104FF0002946484621F041FF4846FEF70DFF04F1DF
:10500000A0074FF6FF767E4BE3664FF0010B42465A
:10501000294684F890B0A4F89A60A4F89C6084F8BB
:105020009E60C4F8945084F898503846ADF81460E7
:1050300021F023FF3846FEF7EFFE724BC4F8A03094
:10504000BDF81430A4F8C63005A904F1CC0884F8E2
:10505000C86038460BF052FA4046FFF71DF804F5D9
:10506000A27318460293FFF717F804F5DE7318468B
:105070000393FFF711F8644BC4E98D34634BC4E923
:105080008F35634BC4E99134624BC4E993354FF4D7
:10509000A0732A46009329465046F023FEF797FE58
:1050A000261D4FF07F43A3665146304607F0ECF8CB
:1050B000294648466FF03D02FDF7DEFD05AA04A92A
:1050C0004846ADF814B0ADF810500BF049F804F5AF
:1050D0001173C4F894304946304607F0D5F86FF0A4
:1050E0000B0229463846FDF7C7FD0D2305A93846B2
:1050F000ADF814300BF002FA39463046362707F087
:10510000C3F82A46294604F5807000979D23FEF7D0
:105110005EFEDFF810B1404B404A41494FF0050AAE
:10512000C4E94F21C4E94DB34046A4F830A1FEF7CD
:10513000B6FC04F50D7929464046FEF793FEC4F807
:10514000FC909D234F22404600972A21FEF73FFE08
:105150004146304607F098F82A46294604F5BC70C7
:1051600000979D23FEF733FE2B4B2C4A2C490298C7
:10517000C4F8B811C4E96C32A4F8A8A1C4F8ACB161
:10518000FEF78DFC02982946FEF76CFE0298C4F8E3
:1051900074919D23982200972A21FEF718FE029908
:1051A000304607F071F82A46294604F5F870009752
:1051B0009D23FEF70CFE184B184A19490398C4F8B2
:1051C0003012C4E98A32A4F820A2C4F824B2FEF74F
:1051D00066FC03982946FEF745FE0398C4F8EC9157
:1051E0009D23E02200972A21FEF7F1FD3046039926
:1051F00007F04AF8204607B0BDE8F08F3496020861
:10520000B8A0020894A1020804960208774F00088B
:105210001C960208B14F0008CC9900FF663300FFCE
:10522000996633FF996600FF70477047704730B446
:10523000C26844685510034604EB6200D20748BFB9
:1052400062599B6830BC48BFD35818470346406832
:1052500030B19A681AB9D86800F00100704701208F
:10526000704710B51021044620F0C4FC204610BD44
:1052700010B54FF49071044620F0BCFC204610BDE0
:105280009830884208B505D10DF03EFDBDE80840D4
:10529000FEF740B808BD00002DE9FF470446A046D0
:1052A00000250FF075FE594BE56348F8403B04F1CB
:1052B0006C074046FEF7C2FD4FF6FF7626222946D0
:1052C0003846ADF80C6021F0D8FD3846FDF7C2FC39
:1052D0004F4BE366BDF80C30A4F8923003A984F874
:1052E0009460384604F198060BF008F93046FDF753
:1052F000B1FC4FF47F43A4F8C430012304F1CC097E
:1053000084F8BC30434BC4F89830C4F8C050C4F89B
:10531000C8504846FEF792FD3F4BC4F8CC302A46B1
:1053200029464846C4E94055C4E94255C4F8F850F6
:10533000A4F8FC50FDF7A0FC4946304606F0A4FF57
:10534000364BC4E94434364BC4E946354FF4A073B8
:105350002A46009329464046F023FEF738FD04F123
:10536000040A4FF07F43A3664146504606F08CFF87
:105370006FF01A0229463846FDF77EFC0A2303A97E
:105380003846ADF80C300BF0B9F8394650463227A4
:1053900006F07AFF2A462946484600979823FEF7EA
:1053A00016FD0523A4F8FC301E4BC4F8003103F5AC
:1053B0004C533333C4F80431A3F5CC43663BC4F8F3
:1053C000083103F1331303F54C53D4F89880C4F833
:1053D0000C313046FEF763FB84F8C550D8F89030A6
:1053E0003046984704F58873C4F8C830D52298230E
:1053F000304600972C21FEF7EAFC5046314606F075
:1054000043FF204604B0BDE8F08700BF8C96020839
:1054100094A10208B49402082CA102087496020810
:1054200081520008996600FF70477047704730B49A
:10543000C26844685510034604EB6200D20748BFB7
:1054400062599B6830BC48BFD35818470346406830
:1054500030B19A681AB9D86800F00100704701208D
:10546000704710B51021044620F0C4FB204610BD43
:1054700010B54FF49071044620F0BCFB204610BDDF
:105480009830884208B505D10DF03EFCBDE80840D3
:10549000FDF740BF08BD00002DE9FF470446A046C8
:1054A00000250FF075FD584BE56348F8403B04F1CB
:1054B0006C074046FEF7C2FC4FF6FF7626222946CF
:1054C0003846ADF80C6021F0D8FC3846FDF7C2FB39
:1054D0004E4BE366BDF80C30A4F8923003A984F873
:1054E0009460384604F198060BF008F83046FDF752
:1054F000B1FB4FF47F43A4F8C430012304F1CC097D
:1055000084F8BC30424BC4F89830C4F8C050C4F89A
:10551000C8504846FEF792FC3E4BC4F8CC302A46B1
:1055200029464846C4E94055C4E94255C4F8F850F4
:10553000A4F8FC50FDF7A0FB4946304606F0A4FE57
:10554000354BC4E94434354BC4E946354FF4A073B8
:105550002A46009329464046F023FEF738FC04F122
:10556000040A4FF07F43A3664146504606F08CFE86
:105570002A4629463846FDF77FFB182303A93846FB
:10558000ADF80C300AF0BAFF39465046322706F023
:105590007BFE2A46294648460097AC23FEF717FCB7
:1055A0000523A4F8FC301E4BC4F8003103F54C531E
:1055B0003333C4F80431A3F5CC43663BC4F8083157
:1055C00003F1331303F54C53D4F89880C4F80C312D
:1055D0003046FEF764FA84F8C550D8F8903030466B
:1055E000984704F58873C4F8C830CF22AC233046FE
:1055F00000972221FEF7EBFB5046314606F044FEB1
:10560000204604B0BDE8F087D896020894A10208AD
:10561000B49402082CA10208C09602088154000824
:10562000996600FF7047000030B5174D2C6814F0E4
:1056300001048FB0BFF35B8F22D1284620F0DCFA43
:10564000F0B13F230993114B0893114B07930123AA
:10565000CDE9053304930423CDE902430A230D4920
:1056600000935F220C23CDE90B440B480A9401946C
:10567000FEF7D6F9094821F017FA284620F0C8FAB3
:1056800005480FB030BD00BFC8730020144903089F
:10569000D44D03085C390308CC730020255600085C
:1056A0007047000030B5164D2C6814F001048FB01F
:1056B000BFF35B8F21D1284620F09EFAE8B13F234B
:1056C0000993104B0893104B104911480A94CDE9E7
:1056D000064301220423CDE903321323009302225F
:1056E000CDE90B44CDE901440594FEF799F9094849
:1056F00021F0DAF9284620F08BFA05480FB030BDCA
:10570000F873002048490308D84D0308903E030869
:10571000FC730020A15600087047000030B5174DFB
:105720002C6814F001048FB0BFF35B8F22D12846A0
:1057300020F062FAF0B13F230993114B0893114B0B
:1057400007930123CDE9053304930423CDE90243F4
:1057500014230D4900935F221823CDE90B440B4815
:105760000A940194FEF75CF9094821F09DF9284656
:1057700020F04EFA05480FB030BD00BF287400205D
:105780004C490308DC4D0308AC3E03082C74002090
:10579000195700087047000030B5174D2C6814F0F9
:1057A00001048FB0BFF35B8F23D1284620F024FA89
:1057B000F8B13F230993114B0893114B0793022330
:1057C000CDE9053301220423CDE9033228230D4915
:1057D00000935F223023CDE90B44CDE901440A4810
:1057E0000A94FEF71DF9094821F05EF9284620F0D9
:1057F0000FFA05480FB030BD58740020F04A030876
:10580000E04D0308E04303085C740020955700084E
:1058100000207047002070470EB403B503AB002191
:1058200053F8042B01930EF069FB02B05DF804EB12
:1058300003B070470CB407B504AB53F8042B0193C5
:105840000EF05CFB03B05DF804EB02B070470000A3
:10585000436C10B5044673B3038F2BB9184B194A28
:10586000C521194821F002F9C38E00EB43035B8C7C
:105870000BB310F0BEFA238F012B03D8134B144A3D
:10588000CB21EEE7E28E531C9BB2092B194688BF51
:10589000A3F10A0104EB410140F63F10498C81421B
:1058A00009D10A2B04EB420228BF002304EB430377
:1058B000508C588451842046BDE8104010F09CB9AB
:1058C0004989020852890208FD890208478A0208AC
:1058D000558A020810F057B910B586B002AC84E8BA
:1058E00006001A460AAB05930193099B00932146D3
:1058F000089B0CF0A7FD06B010BD000038B518BB22
:10590000124B13481C681349B4B122682244026048
:10591000626822440A60A26814440F4B00221A8075
:1059200000F038F8054600F033F80C4B1C600C4BC7
:105930001D600C4B188007E00B4B03600B4B0B609A
:105940000B4B1C68002CE8D138BD00BF94740020BC
:105950008C74002088740020907400206C820120D8
:105960007482012070820120084E0308E44D030870
:105970002C4E0308044B1B6853F82100034B1B6893
:1059800003EB4000704700BF887400208C74002037
:1059900009207047004870479874002010B5FFF741
:1059A000BDFE064C2060FFF7F7FE6060FFF73CFE8F
:1059B000A060FFF777FEE06010BD00BF9874002084
:1059C00010B5002404600C6014601C6010BD000061
:1059D000F8B504460025174607989DF82420C4F81A
:1059E0000E509DF81860C4F80A5065820B25C4E972
:1059F0000070257421726672D2B1721F052A17D801
:105A0000DFE802F027031616270301384FF0FF33B3
:105A100000286060E3601CDC002001216060E1720E
:105A200000F00EFD10B90923237412E00523FBE7F3
:105A3000CA1E012A0FD8F21E012A0CD800233844AE
:105A4000236001236060A3720328CCBF04230323D7
:105A500063722046F8BD751F052D3AD801A252F891
:105A600025F000BF955A00080B5A0008B75A0008E5
:105A7000535A00087D5A00089F5A000800236360AB
:105A80000123E37211B9089B3B4423604FF0FF33BD
:105A9000E360DEE7002363600123E372F6E7013889
:105AA0004FF0FF336060E3600028D2DC00236360C6
:105AB0000123E372CDE70029CBD101384FF0FF334A
:105AC00000286060E360C4DC0123E37261600823A6
:105AD000AAE7C01A5B42E360F31E012B6060E3D8C3
