:020000040800F2
:1000000000000320790C000831280008332800087C
:1000100035280008372800083928000800000000AB
:10002000000000000000000000000000F1A2000835
:100030003B2800080000000081A30008099C00087C
:10004000C90C0008C90C0008C90C0008C90C00083C
:10005000C90C0008C90C0008C90C0008C90C00082C
:10006000C90C0008C90C0008C90C0008C90C00081C
:10007000C90C0008C90C0008C90C0008C90C00080C
:10008000C90C0008C90C0008C90C0008C90C0008FC
:10009000C90C0008C90C0008C90C0008C90C0008EC
:1000A000C90C0008C90C0008C90C0008C90C0008DC
:1000B000C90C0008C90C0008C90C0008C90C0008CC
:1000C000C90C0008C90C0008C90C0008C90C0008BC
:1000D000C90C0008C90C0008C90C0008C90C0008AC
:1000E000C90C0008C90C0008C90C0008C90C00089C
:1000F000C90C0008C90C0008C90C0008C90C00088C
:10010000C90C0008C90C0008C90C0008C90C00087B
:10011000C90C0008C90C00083D280008C90C0008DB
:10012000C90C0008C90C0008C90C0008C90C00085B
:10013000C90C0008C90C0008C90C0008C90C00084B
:10014000C90C0008C90C0008C90C0008C90C00083B
:10015000C90C0008C90C0008C90C0008C90C00082B
:10016000C90C0008C90C0008C90C0008C90C00081B
:10017000C90C0008C90C0008C90C000800000000E8
:10018000C90C0008C90C0008C90C0008C90C0008FB
:10019000C90C0008C90C0008C90C0008C90C0008EB
:0C01A00049280008C90C00085528000878
:1001B00010B5054C237833B9044B13B10448AFF3A1
:1001C00000800123237010BD800300200000000088
:1001D000287B020808B5034B1BB103490348AFF362
:1001E000008008BD0000000084030020287B020876
:1001F00001F0FF01102A2BDB10F0070F08D010F8D8
:10020000013B013A8B422DD010F0070F42B3F6D1DB
:10021000F0B441EA012141EA014122F007047FF0F4
:1002200000070023F0E80256083C85EA010586EA4B
:10023000010685FA47F5A3FA87F586FA47F6A5FA87
:1002400087F68EB9EED1F0BC01F0FF0102F0070293
:1002500032B110F8013B013A83EA010313B1F8D13E
:100260000020704701387047002D06BF354603381F
:10027000073815F0010F07D1013015F4807F02BF58
:10028000013015F4C03F0130F0BC0138704700BFA9
:1002900070B54FF0FF0C4CF4E06C1CEA11541DBF1C
:1002A0001CEA135594EA0C0F95EA0C0F00F0DEF8E7
:1002B0002C4481EA030621EA4C5123EA4C5350EACC
:1002C000013518BF52EA033541F4801143F480131D
:1002D00038D0A0FB02CE4FF00005E1FB02E506F0AE
:1002E0000042E0FB03E54FF00006E1FB03569CF003
:1002F000000F18BF4EF0010EA4F1FF04B6F5007F09
:1003000064F5407404D25FEA4E0E6D4146EB06067A
:1003100042EAC62141EA55514FEAC52040EA5E5003
:100320004FEACE2EB4F1FD0C88BFBCF5E06F1ED8AD
:10033000BEF1004F08BF5FEA500E50F1000041EBE4
:10034000045170BD06F0004646EA010140EA020091
:1003500081EA0301B4EB5C04C2BFD4EB0C0541EAB3
:10036000045170BD41F480114FF0000E013C00F3C8
:10037000AB8014F1360FDEBF002001F0004170BDEC
:10038000C4F10004203C35DA0C341BDC04F1140405
:10039000C4F1200500FA05F320FA04F001FA05F291
:1003A00040EA020001F0004221F0004110EBD3705E
:1003B00021FA04F642EB06015EEA430E08BF20EA8A
:1003C000D37070BDC4F10C04C4F1200500FA04F32D
:1003D00020FA05F001FA04F240EA020001F00041BF
:1003E00010EBD37041F100015EEA430E08BF20EA32
:1003F000D37070BDC4F1200500FA05F24EEA020E7A
:1004000020FA04F301FA05F243EA020321FA04F0A8
:1004100001F0004121FA04F220EA020000EBD3705F
:100420005EEA430E08BF20EAD37070BD94F0000F5F
:100430000FD101F00046400041EB010111F4801F93
:1004400008BF013CF7D041EA060195F0000F18BF44
:10045000704703F00046520043EB030313F4801F80
:1004600008BF013DF7D043EA0603704794EA0C0F3A
:100470000CEA135518BF95EA0C0F0CD050EA410650
:1004800018BF52EA4306D1D181EA030101F00041CD
:100490004FF0000070BD50EA410606BF10461946F5
:1004A00052EA430619D094EA0C0F02D150EA013601
:1004B00013D195EA0C0F05D152EA03361CBF104642
:1004C00019460AD181EA030101F0004141F0FE41E1
:1004D00041F470014FF0000070BD41F0FE4141F465
:1004E000780170BD81F0004102E000BF83F000435D
:1004F00030B54FEA41044FEA430594EA050F08BFBF
:1005000090EA020F1FBF54EA000C55EA020C7FEA82
:10051000645C7FEA655C00F0E2804FEA5454D4EBFF
:100520005555B8BF6D420CDD2C4480EA020281EAC9
:10053000030382EA000083EA010180EA020281EA01
:100540000303362D88BF30BD11F0004F4FEA013153
:100550004FF4801C4CEA113102D0404261EB410162
:1005600013F0004F4FEA03334CEA133302D05242E8
:1005700063EB430394EA050F00F0A780A4F10104A4
:10058000D5F1200E0DDB02FA0EFC22FA05F28018DE
:1005900041F1000103FA0EF2801843FA05F35941C4
:1005A0000EE0A5F120050EF1200E012A03FA0EFC43
:1005B00028BF4CF0020C43FA05F3C01851EBE3716D
:1005C00001F0004507D54FF0000EDCF1000C7EEB8A
:1005D00000006EEB0101B1F5801F1BD3B1F5001FC8
:1005E0000CD349085FEA30004FEA3C0C04F10104E7
:1005F0004FEA445212F5800F80F09A80BCF1004F10
:1006000008BF5FEA500C50F1000041EB045141EA91
:10061000050130BD5FEA4C0C404141EB0101013C5A
:1006200028BFB1F5801FE9D291F0000F04BF014649
:100630000020B1FA81F308BF2033A3F10B03B3F11B
:1006400020020CDA0C3208DD02F1140CC2F10C02AB
:1006500001FA0CF021FA02F10CE002F11402D8BF09
:10066000C2F1200C01FA02F120FA0CFCDCBF41EAD5
:100670000C019040E41AA2BF01EB0451294330BDA4
:100680006FEA04041F3C1CDA0C340EDC04F1140481
:10069000C4F1200220FA04F001FA02F340EA030058
:1006A00021FA04F345EA030130BDC4F10C04C4F19E
:1006B000200220FA02F001FA04F340EA030029467E
:1006C00030BD21FA04F0294630BD94F0000F83F4C8
:1006D000801306BF81F480110134013D4EE77FEAAB
:1006E000645C18BF7FEA655C29D094EA050F08BFF7
:1006F00090EA020F05D054EA000C04BF19461046D8
:1007000030BD91EA030F1EBF0021002030BD5FEA1B
:10071000545C05D14000494128BF41F0004130BD43
:1007200014F580043CBF01F5801130BD01F0004597
:1007300045F0FE4141F470014FF0000030BD7FEA0A
:10074000645C1ABF194610467FEA655C1CBF0B4605
:10075000024650EA013406BF52EA033591EA030F1C
:1007600041F4002130BD00BF90F0000F04BF002114
:10077000704730B54FF4806404F132044FF0000547
:100780004FF0000150E700BF90F0000F04BF0021C0
:10079000704730B54FF4806404F1320410F0004526
:1007A00048BF40424FF000013EE700BF42004FEA21
:1007B000E2014FEA31014FEA02701FBF12F07F439E
:1007C00093F07F4F81F06051704732F07F4208BF55
:1007D000704793F07F4F04BF41F40021704730B55C
:1007E0004FF4607401F0004521F000411CE700BFA8
:1007F00050EA010208BF704730B54FF000050AE02B
:1008000050EA010208BF704730B511F0004502D52B
:10081000404261EB41014FF4806404F132045FEA2D
:10082000915C3FF4D8AE4FF003025FEADC0C18BFD6
:1008300003325FEADC0C18BF033202EBDC02C2F1C8
:10084000200300FA03FC20FA02F001FA03FE40EA5A
:100850000E0021FA02F11444BDE600BF4FEA410246
:1008600012F5001215D211D56FF47873B3EB625202
:1008700012D94FEAC12343F0004343EA505311F029
:10088000004F23FA02F018BF404270474FF00000BB
:10089000704750EA013005D111F0004008BF6FF0F9
:1008A000004070474FF00000704700BF7BB972B93D
:1008B0000029BEBF00204FF0004106E008BF00281D
:1008C0001CBF6FF000414FF0FF3000F0D3B9ADF125
:1008D000080C6DE904CE002909DB002B1ADB00F0BF
:1008E0004DF8DDF804E0DDE9022304B07047404232
:1008F00061EB4101002B1BDB00F040F8DDF804E068
:10090000DDE9022304B0404261EB4101524263EB56
:1009100043037047524263EB430300F02FF8DDF8C6
:1009200004E0DDE9022304B0404261EB410170477D
:10093000524263EB430300F021F8DDF804E0DDE907
:10094000022304B0524263EB4303704753B94AB9E0
:10095000002908BF00281CBF4FF0FF314FF0FF30C7
:1009600000F088B9ADF1080C6DE904CE00F006F88E
:10097000DDF804E0DDE9022304B070472DE9F0471B
:10098000089D8E4604468846002B4AD18A42174667
:1009900062D9B2FA82F64EB1C6F1200301FA06F826
:1009A00020FA03F3B74043EA0808B4404FEA174E71
:1009B0001FFA87FCB8FBFEF1230C0EFB118843EAFB
:1009C000084301FB0CF29A4209D9FB1801F1FF30F0
:1009D00080F0EA809A4240F2E78002393B449A1A5A
:1009E000A3B2B2FBFEF00EFB102243EA024300FB6F
:1009F0000CFC9C4509D9FB1800F1FF3280F0D68031
:100A00009C4540F2D3803B44023840EA0140A3EBCE
:100A10000C0300211DB1F3400022C5E90032BDE8FE
:100A2000F0878B4205D90DB1C5E9000100210846C8
:100A3000F5E7B3FA83F1002946D1734502D3824228
:100A400000F20581841A6EEB030201209046002D0E
:100A5000E5D0C5E90048E2E7002A00F09080B2FA4C
:100A600082F6002E40F0A4808A1A030C4FEA174E3B
:100A700080B2BCB20121B2FBFEFC0EFB1C2243EA99
:100A8000024304FB0CF29A4207D9FB180CF1FF3821
:100A900002D29A4200F2E080C4469B1AB3FBFEF2F7
:100AA0000EFB123340EA034302FB04F49C4207D9D5
:100AB000FB1802F1FF3002D29C4200F2CA800246CB
:100AC0001B1B42EA0C40A5E7C1F120068B4022FA2D
:100AD00006F71F430EFA01F420FA06F32EFA06FE7B
:100AE0004FEA1749234300FA01F81FFA87FCBEFBBF
:100AF000F9F01C0C09FB10EE44EA0E4400FB0CFE5E
:100B0000A64502FA01F209D93C1900F1FF3A80F03A
:100B10009C80A64540F2998002383C44A4EB0E0428
:100B20001FFA83FEB4FBF9F309FB13444EEA0444B5
:100B300003FB0CFCA44508D93C1903F1FF3E80F0EF
:100B40008280A4457FD9023B3C4443EA0040A4EBA9
:100B50000C04A0FB02EC64457346E14662D35FD00F
:100B60005DB1B8EB030264EB090404FA06F622FA5D
:100B700001F31E43CC40C5E9006400214FE7B1FBFF
:100B8000F2FC010C41EA0E4180B240EA01423B46D0
:100B900038463C46B846BE462026B1FBF7F1A2EBEC
:100BA000080241EA0C4166E7014618E710462CE7C7
:100BB000C6F120022EFA02F3B740B14020FA02F249
:100BC0004FEA174E0A43B3FBFEF8BCB20EFB1833D4
:100BD000110C41EA034108FB04F9B04089454FEA92
:100BE000104380B23ED9791808F1FF3C01D2894503
:100BF0001FD8A1EB0901B1FBFEF909FB04F80EFBBC
:100C0000191192B242EA0142424529D2BA1809F1B9
:100C1000FF31C4D24245C2D2A9F102013A44BEE733
:100C2000F0459DD2BEEB02036CEB070C0138E146A8
:100C300096E7A7EB09094944A8F1020CB1FBFEF9BC
:100C400009FB04F8DBE773467FE7504666E7084692
:100C5000FDE63B44023A33E7ACF1020C3B441CE7AF
:100C600049469CE7A1EB0901C446B1FBFEF909FB2B
:100C700004F8C4E7704700BFDFF834D0002103E078
:100C80000C4B5B58435004310B480C4B42189A42B2
:100C9000F6D30B4A02E0002342F8043B094B9A4288
:100CA000F9D306F033FD26F0D1F901F067F870476B
:100CB00000000320881113080000002068010020B4
:100CC00080030020588F0120FEE7704708B500F030
:100CD000BFFDBDE8084000F041BD00F0BBBD70475E
:100CE00010B50421044624F0C5FF204610BD0000C5
:100CF00038B50C4B0C4C18800C4B82201980636863
:100D0000984740F6110398420AD1094D23682C6098
:100D1000822098472B688220DB689847002038BDE6
:100D20000120FCE7A603002050000020A4030020BF
:100D3000A80300204FF4A071F020FFF7D9BF0000F6
:100D4000F7B5394D2B6804461B69822098472080EF
:100D500000284ED02B680DF106025B6901A98220A4
:100D60009847324B1B78002B4BD0BDF8062040F63D
:100D700074639A423FD9ADF80630BDF806209B1A3D
:100D80009BB20A2B42D90B22B3FBF2F3284A1288FA
:100D9000934201D9013A93B2BDF80420254840F6A8
:100DA000B8318A4234D8C2F571620E32016892B20B
:100DB0000F25B2FBF5F2204D2D88AA4284BF05F124
:100DC000FF35AAB28A4215468EB22AD9921B91B239
:100DD0001A4E3768BB42BAB28CBF9A1AD21A92B274
:100DE00011440529C4BF056033600368638033681C
:100DF000A38003B0F0BDB32A9CBFB422ADF8062097
:100E0000BBE7BDF80630A3F5B473B9E70023C3E729
:100E1000C2F56D62083292B20E2A0168C8D8002568
:100E20002A46891A89B2D3E7A80300209C710020C2
:100E3000A4030020A0030020A60300209C030020A0
:100E400037B568460D461446FFF77AFFBDF8000037
:100E500030B1BDF802302B60BDF8043023600120B2
:100E600003B030BD032821D8DFE800F0020B1219CF
:100E70000F4B1A68B2FA82F2520904210D4806F0AB
:100E8000D9BE0B4B5A68B2FA82F252090821F5E733
:100E9000074B9A68B2FA82F252091021EEE7044B2E
:100EA000DA68B2FA82F252092021E7E7704700BF00
:100EB000AC03002000100240032821D8DFE800F036
:100EC000020B12190F4B1A68003A18BF01220421B5
:100ED0000D4806F0AFBE0B4B5A68003A18BF01220E
:100EE0000821F5E7074B9A68003A18BF0122102144
:100EF000EEE7044BDA68003A18BF01222021E7E749
:100F0000704700BFAC0300200010024003280DD83A
:100F1000DFE800F00206080A0421054806F08FBE4B
:100F20000821FAE71021F8E72021F6E7704700BF13
:100F30000010024008B5032811D8DFE800F0020ACB
:100F40000C0E0421074806F06FFE431E584258411C
:100F500008BD0821F6E71021F4E72021F2E7002080
:100F6000F3E700BF0010024070B5084D00240126D1
:100F7000E0B2FFF7DFFF18B12B68012B18BF2E601E
:100F80000134052C05F10405F2D170BDAC0300203D
:100F9000012380F8781080F879307047704700207E
:100FA00070470000034B4164003918BF01211970DC
:100FB000704700BF17820120704700207047836B85
:100FC0000BB10846184770474FF6FF7070474068EE
:100FD00003689B69184770477047704770477047B0
:100FE00010B5044600F04CFD23680349D3F8903057
:100FF0002046BDE810401847000000D008B503683F
:101000000446D3F88430984723682046DB6F98471E
:1010100000F0ECF8236820465B6F9847292001F028
:1010200027F900F0E3F8236820465B6F9847F8E75C
:1010300010B504460CF0D0F923682046D3F8BC3034
:10104000BDE81040184700F0FFBC00F003BD00F001
:1010500035BD00F0D5BC00F045BD00F04DBD00F041
:10106000D9BC0BF0E7BB10B58421044624F002FE86
:10107000204610BD10B590F8341090F878400C4B15
:101080008C421A7809D03AB90A4A0B491488088860
:1010900010800C8001221A7010BD002AFCD0054A75
:1010A00005491488088810800C800022F3E700BFEF
:1010B000108201200C8201200E82012070B50D46A5
:1010C000194635B9094B0A4A0A4840F2FF2125F072
:1010D0000DFDC0E90F52084B003A18BF01221A70EB
:1010E0000368BDE87040D3F890301847587C020878
:1010F000907C0208DE7C02081682012008B5094BAC
:101100001B888B4203D8084B1B88934205D9074B99
:10111000074A0848A32125F0E9FC074B1980074B33
:101120001A8008BD0C8201200E820120237D020856
:10113000867D0208DE7C02081282012014820120D2
:10114000034690F87A0018B1586803681B6818477E
:1011500070470000012108B50022084608F0DEFDB6
:101160000A4B186028B90A4B0A4A28210A4825F078
:10117000BDFC00220421012008F06FFE074B18601F
:1011800018B9074B034A2C21F0E708BDC003002023
:10119000C97D0208127E0208417E0208BC030020BD
:1011A0008C7E0208024B4FF0FF31186808F000BE39
:1011B000C0030020014B186808F026BEC0030020C1
:1011C000024B0021186808F0F3BD00BFC0030020E7
:1011D000FFF7F0BF03480449006800231A4608F0EF
:1011E00077BE00BFBC0300200400002013B5084CEC
:1011F00000231A4601A9206808F09BFE20684FF0E2
:10120000FF33002201A908F094FE02B010BD00BF18
:10121000BC03002003685B6C18470120704703681B
:101220009B6A1847FEE740F2EF307047054B0360BA
:10123000054B4FF08062C3F88820BFF34F8FBFF398
:101240006F8F7047EC8C020800E100E010B5044697
:101250004FF45A61FFF7EAFF204624F00BFD2046C9
:1012600010BD000082B0002301930E4B1A6B42F4B4
:1012700000021A631A6B02F400020192019A1A69C1
:1012800042F400021A611A6922F400021A61064B44
:10129000064A1A61064A5A61064B4FF080629A600C
:1012A00002B0704700380240307300200515000876
:1012B0002512000800E100E008B50A2809D8DFE897
:1012C00000F006100E080808081010101000022088
:1012D00008BD054B054A0648902125F007FC002073
:1012E000F6E70120F4E700BFCE7E0208E97E02089F
:1012F000347F020838B50C46887FFFF7DDFFA58AEA
:10130000E28A164B2169586342EA05425A64628BAD
:10131000D963521B1A642568082D0ED19A611A618F
:101320005862207F0E4A42EA0062DA61E2681A627D
:101330000C4A5961D9601A6038BD0022D8611A611F
:10134000E1680A0A480902F4784200F4FC600243AA
:10135000C1F3C4010A439A63034AECE700B00240B8
:1013600009000100012302000123030008B50B2836
:101370000BD8DFE800F00612100A0A0A0A0808086B
:101380000808022008BD0520FCE7054B054A064871
:101390006F2125F0ABFB0020F4E70120F2E700BF4E
:1013A000CE7E02087D7F0208347F02082DE9F041DD
:1013B00091F81D800C464046FFF7D8FFA77F0546F1
:1013C0003846FFF7D3FF06463846FFF775FFA18A78
:1013D000628B444B521A1A649A61228B521A1A6118
:1013E000E28A586342EA01425A6421696268D96319
:1013F000DA602068802828D0227F0FD8202867D084
:10140000402865D004281AD0364B45EA026545F4D9
:101410000035B845DD6161D0334A44E0B0F5807FE6
:1014200004D0B0F5007FEFD1304800E0304840EA0A
:101430000262DA61E2681A625E62596132E045EA8C
:10144000026242F40032DA61F6E7A068021DDA6255
:10145000227F45EA026545F40035DD615E6259612F
:10146000017841B1012921D0224B234A23484FF46E
:101470008D7125F03BFBDA69418822F47F42013906
:1014800022F0100242EA0122DA610121154BDA69E9
:1014900042F02002DA61DA699206FCD410229A60E6
:1014A0000029B9D0164A1A60BDE8F081B2F1FF01F7
:1014B000DA69408822F47F4200F1FF3022F0100206
:1014C00042EA002242F0100218BF0121DA61DDE792
:1014D00045EA0262034B42F40032B4E742F20132C1
:1014E000E1E700BF00B00240012301000900020053
:1014F0000A000200C77F0208E17F0208347F020869
:1015000001230200024B1B68586803685B69184797
:101510001882012070B5044625460A4B0C3000267F
:1015200060602672667245F8203B602229460CF006
:10153000A9F804F55A63EE6024359D42FBD120469C
:1015400070BD00BFEC8C0208034B1A68D207FCD4B4
:1015500023229A60704700BF00B00240704700002D
:1015600030B50F4C2568ED07FCD423250904A56090
:1015700041F001010225FF2B65636164E0630AD03D
:101580000849656241EA0363E361074B22626061D7
:10159000E060236030BDE561039BA363034BF8E784
:1015A00000B0024009000100010002000100030038
:1015B00030B50E4C2568ED07FCD423251204A56038
:1015C00042F001020225FF2B65636264E063E16083
:1015D00008D01B0643F00213E361054B65626061AE
:1015E000236030BD034BE3610123F9E700B0024003
:1015F00001000200020002FF30B50B4C2568ED0728
:10160000FCD4232512041B06A56043F400330225F5
:1016100042F0010265636264E063E160E361034BF1
:1016200065626061236030BD00B0024001000200CD
:101630000120704714207047142303FB0100083079
:101640007047142303FB01000830704701207047E6
:1016500045F68840704745F6884303FB0100083093
:10166000704745F6884303FB0100083070470120AE
:1016700070471020704700EB01100830704700EBF6
:10168000011008307047084601F034BE10B5034B16
:10169000036004460AF0A7FB204610BDA48D020893
:1016A00010B50446FFF7F2FF20461C2124F0E2FAB1
:1016B000204610BD10B5034B036004460AF093FBAF
:1016C000204610BD708D020810B50446FFF7F2FFEA
:1016D000204645F6904124F0CDFA204610BD00008A
:1016E00010B5034B036004460AF07DFB204610BD95
:1016F0003C8D020810B50446FFF7F2FF2046182182
:1017000024F0B8FA204610BD10B5094B036004461A
:1017100000F5B9403C30FFF7B9FF04F12C00FFF7AA
:10172000C9FF04F11400FFF7DBFF204610BD00BF26
:10173000D88D020808B50248FFF7E6FF08BD00BFD4
:101740009C12002010B50446FFF7DEFF204645F648
:10175000386124F08FFA204610BD00002DE9F341D6
:1017600001F0F2F8054601F0F3F8002401462346A3
:1017700028462246009415F0CBF9274B274A1A60D9
:10178000204604F0EFF8264D264B274A27489A605A
:1017900015F026F92B68BFF35B8FDB0736D428469C
:1017A00024F06AFA90B3224C224F234B236007F1B6
:1017B000200604F1140004F12C086060C4F80880CD
:1017C000E76026610AF010FB1C4B636140460AF09B
:1017D0000BFB1B4BE36238460AF006FB04F5A04303
:1017E00003F6D840174AC3F8BC2C04F065FE224625
:1017F00007F11C01304604F08BFC304601F07AFD05
:10180000114825F091F9284624F042FA0F4802B019
:10181000BDE8F041FFF7E4BB7C82012048040020D2
:1018200098120020680400204C04002008000020CA
:101830009C120020586F0020D88D02083C8D0208B1
:10184000708D0208A48D020835170008C40300201B
:10185000704700000148FFF7D1BB00BFC403002060
:1018600070B5264E264C274D274B23603046FFF798
:1018700051FE28461AF052FA244812F05FFD244B1C
:101880002448DC6000224FF48071C3E9121222491F
:101890001A86C3E91A12214983F85820C3E91E01A8
:1018A0001F49C3F880101F491F480B60F021C3E98E
:1018B0000422C3E90622C3E90822C3E90A22C3E9D4
:1018C0000E22C3E91022C3E91422C3E917225A6683
:1018D00083F870205A67C3E90165018013480180CD
:1018E00013484FF4A07101801248018012490A7018
:1018F000012283F83420114A1A6070BDF4040020DC
:101900009412002068040020487C02084C04002047
:10191000C403002000000101010000010004500088
:101920001A001400188201200C820120128201206A
:101930000E8201201482012010820120008C0208F6
:101940000148FFF773BC00BFF4040020002070477B
:1019500081807047C1807047018170474181704725
:101960007047704770477047704710B4C488036869
:10197000121B84885B6D091B12B25DF8044B09B21F
:1019800018474FF6FF7383814FF0FF3303621368EC
:10199000C36110607047002070478B8883800120EE
:1019A0007047704780F82610704790F826007047FF
:1019B00010B50022B1F90840B1F90A100280428046
:1019C0008480C18010BD0022028042808280C2805B
:1019D00070470177704780ED080A704780F824103F
:1019E000704780F825107047012070479830704785
:1019F0008C307047843070477047704770470000E4
:101A0000034B902283F85A2383F85823704700BF72
:101A100000E100E0094A0A49D3680A48C3F30A030F
:101A2000013B9BB20B801169C1F30A0101390180AE
:101A30001364536B43F00103536370470068014024
:101A4000D6700020D4700020014BD3F8AC00704752
:101A500000680140024B0122C3F8AC105A62704783
:101A60000068014010B52C21044624F003F92046FB
:101A700010BD10B5BC21044624F0FCF8204610BD72
:101A800070B504460AF02BFF23689D6E11F07CF9B7
:101A900001462046A8472368054AD3F88C502046C3
:101AA000AC460023BDE87040A2F51631604700BF88
:101AB00000B004D00AF0FABE0AF004BF0AF0C0BEBB
:101AC0000BF02FB890F8252012B103685B69184716
:101AD000704790F825201AB190F8242002B11860C0
:101AE00070470000034B4FF080629A604FF08072A5
:101AF0009A60704700E100E0084B4FF08062C3F845
:101B00008820BFF34F8FBFF36F8F4FF08072C3F801
:101B10008820BFF34F8FBFF36F8F704700E100E065
:101B200070B50023124E8380124B0360336893F824
:101B3000582005460AB1D86C00B998680368DB6A7A
:101B400098473368B0FA80F4D86C640930B1036800
:101B5000DB6A9847002808BF44F001042CB9064B03
:101B6000064A07482C2124F0C1FF284670BD00BF5B
:101B700018820120EC8D02081F8002087D80020877
:101B8000B680020870B5254E3568BFF35B8F15F03F
:101B9000010540D1304624F06FF800283BD0204C9E
:101BA000204B256104F13400C4E90035C4E9025535
:101BB000E584A562A58512F0A6FE04F158000DF09B
:101BC00063FB194BA3652046184B40F8843BFFF795
:101BD000A7FF174BC4F884302433C4F88C304FF47B
:101BE000C803C4E928350023C4F8AC30C4F8B030C9
:101BF000C4F8B430C4F8B8300E480F4BC4F8905055
:101C0000C4F89C50C4F8A850C4F8983024F08CFF55
:101C1000304624F03DF8024870BD00BFD870002067
:101C2000DC700020CC9D02080C8E0208848E020815
:101C3000809D0208FD190008209D020838B5184C47
:101C400023685BB3174B184A1B6C11888B4216D163
:101C5000164B198806F0F6FD236893F86A200025D4
:101C6000013283F86A2083F87C50FFF7B3FA2068CA
:101C70000BF0B2FB2846BDE83840FFF7F3B806F09A
:101C8000E1FD2468236820461B6A9847012384F8F5
:101C90007C300020BDE83840FFF70EB938BD00BFEA
:101CA0001882012000680140D6700020D470002006
:101CB00007B5064BADF806001B68054801220DF17B
:101CC000060107F05FFB03B05DF804FB0C00002089
:101CD000DC71002008B5642008F014F8FBE7000070
:101CE00030B595B0102200210AA825F006F914227B
:101CF000002103A825F001F900241E4B01941A6C61
:101D000042F080521A641B6C03F080530193019BD4
:101D1000194B02941A6842F440421A601B6803F49B
:101D2000404302930122029B4FF48033CDE9082304
:101D300002254FF480030821CDE90E534FF4B4730C
:101D4000CDE9101308A804231393129506F0D2FDD1
:101D500006F096FD0F23CDE903354FF4A0504FF464
:101D60008053CDE90603052103A8059406F09EFFE4
:101D700015B030BD003802400070004080B59AB008
:101D800005F0D2FCFFF7ACFF142200210DA825F0CE
:101D9000B4F80024C84B00941A6BC848C84DDFF84B
:101DA000548342F010021A631A6B02F01002009280
:101DB000009A01941A6B42F004021A631A6B02F043
:101DC00004020192019A02941A6B42F020021A63F3
:101DD0001A6B02F020020292029A03941A6B42F0EC
:101DE00080021A631A6B02F080020392039A049431
:101DF0001A6B42F001021A631A6B02F0010204929C
:101E0000049A05941A6B42F002021A631A6B02F0EC
:101E100002020592059A06941A6B42F040021A6378
:101E20001A6B02F040020692069A07941A6B42F06F
:101E300008021A631B6B03F00803224607933C2138
:101E4000079B05F0F7FE9F480122022105F0F2FEF4
:101E500022469C48042105F0EDFE22469A484FF4A4
:101E6000405105F0E7FE01263C23CDE90D369348AD
:101E70000F9403230DA9109305F0F2FD4FF40053C6
:101E800090480F940DA90227CDE90D3405F0E8FD27
:101E90008C480DA9CDE90D76CDE90F4405F0E0FDA4
:101EA000042388480DA9CDE90D36CDE90F4705F08B
:101EB000D7FD0DA94FF440538348CDE90D36CDE948
:101EC0000F4705F0CDFD8148814B036005F0BEFC56
:101ED000DFF824E27F4B2C62C5E900E328464FF48B
:101EE0008043C5E90434C5E90244C5E9064406F067
:101EF000AFF81021284606F0F3FA21462846764D21
:101F000006F00DFB4FF48273C5E900834FF40079AE
:101F10001823C5E9069328460A23C5E90244C5E902
:101F20000444C5E90844AC62EB6207F0CFF98F23A3
:101F30002246394663488DF824308DF8344005F048
:101F400079FE32464FF47A7309A9284607F01AFA47
:101F50004FF47A7332460DA9284607F0BFFB32468C
:101F6000394658485D4D05F065FE9DF83430D32B59
:101F700004BF5B4B1E705B4B0126C5E90036102287
:101F800040230024C5E904234FF4C073C5E9063497
:101F90004FF40063C5E908344FF4005302274FF0B3
:101FA0000409AB624FF0030A07230DA92846CDE9C7
:101FB0000D73CDE90F934FF00808C5E90249CDE94B
:101FC00011A7139707F066F84FF6FF7209A9284684
:101FD000CDE90A86089409960C9407F07BF8304600
:101FE00005F0CEFB4FF6FF7209A92846CDE9097826
:101FF000CDE90B6407F06EF84FF6FF7209A9284689
:10200000CDE909A8CDE90B9407F064F84FF40C73FF
:102010000893089B0C934FF6FF7209A92846CDE957
:1020200009980B9607F056F840F26A51284607F0D7
:102030006FF834220DEB0200214624F05EFF2A4D9A
:102040002A4B2C61C5E900340923C5E905361D2357
:10205000C5E9073A40F20D1140F24313C5E90913EF
:1020600040F2171040F24713C5E90B032846C5E9B3
:102070000244AC8685F8364006F0ECFAFF214FF4B6
:10208000806CF022CDE912140521CDE914C14FF482
:10209000A0730DA9CDE90E24CDE9164228462246AB
:1020A000134D1893CDE910370D94ADF864408DF8B9
:1020B000664006F09AFB21E0003802400010024022
:1020C000DC72002000080240000C02407073002007
:1020D00000300240A0860100DC710020A8710020C1
:1020E0009C710020400100A0347200200068014073
:1020F0009871002000500140005C0040174B2B609D
:102100001B6898472B68164DDB689847154B284687
:10211000C5E90034C5E90274C5E90A47C5E90C44BC
:1021200005F0A4FB3146284605F056FCFEF7CEFD2F
:10213000FEF7CBFD07F076FD0B4A0C48214607F071
:102140009DFD0B4B0B4A186021460B4807F096FD8E
:102150000A4B186007F078FDFEE700BF180000206A
:102160003073002000B00240EC8E0208D51C00083D
:10217000A4710020C88E0208DB0C0008A0710020AA
:10218000704770477FB5094B8DF817201B68029385
:102190000DF117020123009201930A4601460448FB
:1021A00005F0FEFF07B05DF804FB00BF1000002043
:1021B000DC7200207FB500238DF81730084B1B68B8
:1021C00002930A4601230DF1170100910193014684
:1021D000044806F075F89DF8170007B05DF804FB99
:1021E00010000020DC7200201FB5084C246800920B
:1021F000CDE901340A4601230146054806F060F89E
:10220000003818BF012004B010BD00BF100000202E
:10221000DC72002005F0B4BA10B5064C002220464E
:10222000042105F007FD20460122BDE810400421ED
:1022300005F000BD0008024038B50B4D04460122F0
:102240000A484FF4005105F0F5FC0022042128460D
:1022500005F0F0FC2046FFF72BFD28460122BDE8E3
:102260003840042105F0E6BC00080240000C0240A2
:1022700038B50B4D044600220A484FF4005105F0D2
:10228000D9FC00220421284605F0D4FC2046FFF7A3
:102290000FFD28460122BDE83840042105F0CABCE4
:1022A00000080240000C0240F7B5144E144F0546DA
:1022B0000C4630460022042105F0BCFC00224FF4FD
:1022C0000051384605F0B6FC2846FFF7F1FC0D4BEF
:1022D0000D481B68224601A907F000FA3846012282
:1022E0004FF40051019C05F0A5FC30460122042169
:1022F00005F0A0FC204603B0F0BD00BF000802407E
:10230000000C02400C000020DC71002005F038BAFF
:102310000268034B9A4201D105F020BA704700BF12
:10232000001000407047000082B00E4B0022009267
:10233000596C41F480415964596C01F48041009119
:1023400000990192196C41F0805119641B6C03F0E3
:1023500080530193019B0F216FF0010002B005F043
:1023600035BA00BF003802400268094B9A4282B079
:102370000BD100230193074B1A6B42F480521A636E
:102380001B6B03F480530193019B02B0704700BFA5
:10239000003002400038024007B50F4B02689A42F5
:1023A00016D10022A3F5F0430192196B41F400010C
:1023B00019631B6B03F40003019305215A20019B51
:1023C00005F004FA5A2003B05DF804EB05F030BACA
:1023D00003B05DF804FB00BF00B002402DE9F043FC
:1023E000044689B01422002103A824F086FD226847
:1023F000244B9A4243D1244C244800250095236B5A
:1024000043F004032363236B03F004030093009B56
:102410000195236B43F001032363236B03F0010356
:102420000193019B4FF012094FF400734FF0010824
:102430000327042603A9CDE90339CDE905870796CB
:1024400005F00EFB4FF480731148079603A9CDE900
:102450000339CDE9058705F003FB0295236C43F4AE
:1024600000032364236C03F400030293029B236A9A
:1024700043F400032362236A23F40003236209B0B8
:10248000BDE8F083005C00400038024000080240D4
:1024900000000240F0B599B004461422002107A8BC
:1024A00024F02BFD30220DEB0200002124F025FD4D
:1024B00022685E4B9A4240F0B78008230C93C023F9
:1024C0001093042312930CA84FF40033159306F0D5
:1024D000B5FC08B1FFF726FF554B56480024009481
:1024E0005A6C42F080625A645A6C02F08062009228
:1024F000009A01941A6B42F020021A631A6B02F0E0
:1025000020020192019A02941A6B42F001021A63AE
:102510001A6B02F001020292029A03941A6B42F0C3
:1025200002021A631A6B02F002020392039A0494E5
:102530001A6B42F040021A631A6B02F040020492D6
:10254000049A05941A6B42F004021A631A6B02F0A3
:1025500004020592059A06941A6B42F008021A6367
:102560001B6B03F00803069302250E26069B0B96B1
:102570004FF4806307A9CDE90735CDE9094505F09A
:102580006FFA41F658032C480B9607A9CDE9073599
:102590000927CDE9094505F063FA032327480B977E
:1025A00007A9CDE90735CDE9094505F059FA4FF4FA
:1025B000706322480B9607A9CDE90735CDE9094597
:1025C00005F04EFA4FF40C631D480B9607A9CDE9B0
:1025D0000735CDE9094505F043FAC02319480B96A4
:1025E00007A9CDE90735CDE9094505F039FA0823F2
:1025F00015480B9607A9CDE90735CDE9094505F042
:102600002FFA4FF4A0530E480B9707A9CDE90735D1
:10261000CDE9094505F024FA58202246052105F0A8
:10262000D5F8582005F004F919B0F0BD0068014054
:102630000038024000140240000002400004024042
:102640000018024000080240000C024010B5044689
:1026500088B01422002103A824F04FFC2268144BF8
:102660009A4223D103F56843002101915A6C114825
:1026700042F480125A645A6C02F480120192019A58
:1026800002911A6B42F020021A631B6B03F02003C5
:102690000293029B4FF4607202230321CDE90323CE
:1026A0000523CDE9061303A905F0DAF908B010BD3A
:1026B00000500140001402402DE9F04186B0002393
:1026C00003932B4B1C68002C4FD14FF00108C3F82B
:1026D0000080284B00949A6B274842EA08029A63CC
:1026E0009B6B03EA08030093022703260C25009B3B
:1026F00001A94FF63F03CDE90137CDE9046505F0A7
:10270000AFF91E48059501A9CDE90187CDE903463A
:1027100005F0A6F948F233131948059501A9CDE94A
:102720000137CDE9034605F09BF94FF68373154851
:10273000059501A9CDE90137CDE9034605F090F9EA
:102740004CF203731048059501A9CDE90137CDE995
:10275000034605F085F960230C48059501A9CDE9EC
:102760000137CDE9034605F07BF906B0BDE8F081FD
:102770007873002000380240001402400008024034
:102780000018024000100240000C02400004024009
:1027900070B588B000230293204B1A6C42F01002EF
:1027A0001A641B6C03F010030293054601A903A8E9
:1027B000029B06F025FB069B4BBB06F011FB184E57
:1027C000184B336040F2E733F360174BB0FBF3F381
:1027D000013B7360304600233361B360B36107F09F
:1027E0004DF9044680B9304607F01EF8044658B942
:1027F000362005F01DF80F2D0DD82246294636202B
:1028000004F0E4FF094B1D60204608B070BD06F0DF
:10281000E7FA4000D3E70124F6E700BF00380240A2
:102820007C7300200010004040420F008000002018
:102830007047FEE7FEE7FEE7FEE77047014807F056
:1028400031B800BF7C730020014805F071BF00BFA4
:1028500034720020014805F035B800BF3073002005
:102860000120704708B524F0EBFB162303604FF0FE
:10287000FF3008BD08B524F0E3FB16230360FEE734
:1028800070B50D4614460E46731B9C4201DC204673
:1028900070BDAFF3008006F8010BF5E770B50D468B
:1028A00014460E46731B9C4201DC204670BD16F890
:1028B000010BAFF30080F5E74FF0FF3070474FF4A6
:1028C00000534B6000207047012070470020704784
:1028D0000A4A116808B5034609B909491160106828
:1028E000694603448B4206D924F0AAFB0C230360FB
:1028F0004FF0FF3008BD1360FCE700BFC473002039
:10290000588F0120704710B50421044623F0B2F916
:10291000204610BD08B5032913D8DFE801F00206F0
:102920000A0E03F06BF8006808BD03F067F8406812
:10293000FAE703F063F88068F6E703F05FF8C06831
:10294000F2E70020F0E7000000487047248F0208FB
:102950001920704713B5002451B1036801948DF814
:10296000034001AA9C680DF10303A04702B010BD0B
:102970000846FBE7C0897047008A7047C0887047E7
:1029800080887047807A00F07F007047807AC009A5
:1029900070470020704700009FED010A704700BF9C
:1029A00000000000806A7047704730B5036885B04A
:1029B0006D460181D3F88430014604462846984785
:1029C00095E807003C3484E8070005B030BD30B519
:1029D000036885B06D464181D3F8843001460446D2
:1029E0002846984795E807003C3484E8070005B07E
:1029F00030BD0022028042808280C280704780F811
:102A00003610704770B5036804461B6B154698472F
:102A10002368294620465B6EBDE8704018470020B9
:102A20007047806C704770477047704770477047B9
:102A3000A0F850107047B0F850007047818570477B
:102A4000808D704710B50821044623F013F9204605
:102A500010BD10B54C21044623F00CF9204610BDE2
:102A600010B56021044623F005F9204610BD10B5CD
:102A70003C21044623F0FEF8204610BD10B54FF46B
:102A8000B471044623F0F6F8204610BD08B590F85E
:102A900028300BB1FFF716F808BD08B5FFF712F89C
:102AA00008BD0000036870B55E6B124B1B680446DE
:102AB0008DB22BB9104B114A6C21114824F016F835
:102AC0001049828D0988914203D80F4B0B4A6D2122
:102AD000F3E713F812200D4B1B6853F8220003682C
:102AE0001B6B9847291A3346204609B2BDE870404F
:102AF000184700BF708201202D8102086F810208F3
:102B0000AA81020874820120F181020878820120E2
:102B100090F84C3070B50446002B4AD0B0F84E0007
:102B2000B4F85030013080B29842A4F84E0040D33F
:102B3000B4F85450B4F85620A66D521BC01A12B205
:102B4000B4F85230002180B2B04794F836200544E2
:102B5000ABB22DB2AA4205D02DBB2046FEF7B2FF84
:102B600084F83650B4F85030B4F85210B4F84E200F
:102B70000B449A421DD3002384F84C30A4F8523001
:102B800010F002F92146043010F04BF9E06D80B1ED
:102B90000368DB68984760B1E06D036821469B6875
:102BA000BDE87040184784F836302046FEF78AFFAB
:102BB000D8E770BD90F8293070B50446002B40D09E
:102BC000408DA38D013080B29842608539D3258E27
:102BD000628E666B521BC01A12B2E38D002180B266
:102BE000B04794F828200544ABB22DB2AA4205D0D4
:102BF0000DBB2046FFF74AFF84F82850A38DE18DD6
:102C0000628D0B449A421CD3002384F82930E3855B
:102C100010F0BAF82146043010F003F9A06B80B12F
:102C20000368DB68984760B1A06B036821469B6826
:102C3000BDE87040184784F828302046FFF726FF8B
:102C4000DCE770BD00224FF0FF31C0E90021826057
:102C500070470000074A02600022C0E90122C0E973
:102C60000322C0E90522C0E907224FF48072828462
:102C7000704700BFC0A2020870B5036804461B6B12
:102C8000154698472368294620465B6BBDE870408F
:102C90001847000038B5262204460D46002124F0CE
:102CA0002CF92046FFF7D6FF064B23602B88E384E0
:102CB000FF23204684F8283029460DF05FFC20468B
:102CC00038BD00BFF0A1020810B52622044600213D
:102CD00024F013F92046FFF7BDFF0A4B23600A4B8F
:102CE000A3624FF6FF73A3854FF47F020023C4E96C
:102CF0000C3223874FF0FF32C4E91023E3632046F0
:102D000010BD00BF1CA00208209102082DE9F04F61
:102D1000044687B026460025FFF79CFF7B4BA56243
:102D200046F82C3B4FF6FF7704A9304604F16809BA
:102D3000ADF81070FFF7AEFF754BE36204A9ADF874
:102D40001070484604F1940784F85550A4F8565082
:102D5000A4F858506566FFF79DFF3846FFF7B4FFAB
:102D600004F1E0086B4BC4F89430C4F8DC504046E2
:102D7000FFF7AAFF684BC4F8E0304FF028132A464B
:102D80003046A3602946C4F8285184F82C51A4F891
:102D90002E51A4F83051C4F83C51FFF76DFF0B23BE
:102DA000304604A9ADF810300DF0E8FB314620465E
:102DB00009F0AAFA192248462946FFF75DFF0C23BD
:102DC000484604A9ADF810300DF0D8FB494620461E
:102DD00009F09AFA192229463846FFF74DFFD4F830
:102DE0009430DFF854B19B6B0F2138469847D4F8E4
:102DF00094300F21DB6B384698474FF07F43C4F87F
:102E0000C430D4F89430A4F8C8506E46D3F8843057
:102E100039463046984796E8070004F1D00383E826
:102E20000700DBF8003004F5A0792BB93B4B3C4A96
:102E300060213C4823F05AFEDFF800A1BAF80030C8
:102E4000062B03D8384B364A6121F2E7374B06216F
:102E5000186802F0C3FD364A03460A21484613F0BB
:102E6000B1FD0823C4F8DC9004A93846DFF8D090FF
:102E7000ADF81430CDF810900DF054F939462046D5
:102E800009F042FA012203214046FFF7F5FE294BE3
:102E9000C4F81031D4F8E030A4F814513046D3F817
:102EA00084304146984796E8070004F58E7383E81E
:102EB0000700DBF8003004F5AA76002BB6D0BAF88C
:102EC0000030012BBED9194B0121186802F086FD94
:102ED000174A03460A21304613F074FD4046C4F8F1
:102EE00028610DF0FFF8072304A94046ADF814301F
:102EF000CDF810900DF016F9204684F805514146A2
:102F000009F002FA204607B0BDE8F08FCC92020823
:102F1000C091020830910208349202082D81020803
:102F20002F820208AA810208F18102087C82012016
:102F30007A820208008CFFFF7082012074820120D7
:102F4000209102087047704700F598730868496837
:102F500003C37047704770474160704770477047C0
:102F6000064BC0F84C310023C0F8503100F5A27375
:102F7000C0F84801C0F84031704700BFBD300008BC
:102F8000012303727047704770477047704770475E
:102F900010B4C26841685410034601EB6200D207C6
:102FA00048BF0A599B685DF8044B48BFD35818477F
:102FB0000346406830B19A681AB9D86800F0010039
:102FC00070470120704710B51421044622F052FECC
:102FD000204610BD10B50C21044622F04BFE2046C1
:102FE00010BD10B51021044622F044FE204610BD4D
:102FF00010B54FF4AE71044622F03CFE204610BDE1
:1030000010B50FF0C1FE0368BDE81040DB6B184738
:1030100070B50446B2B01E49C02202A824F03DF8A3
:10302000237C2F2B03D90123237232B070BD33B917
:10303000184B1B781BB10FF0A7FE0FF0ABFE02255B
:10304000237C302BF1D832AA02EB8303E68953F8B4
:10305000C03C608993FBF6F206FB123313FB00F3CE
:10306000ADF804006068A189ADF800300368ADF8E0
:10307000061012FB01F21B69ADF802206946984761
:10308000237C012D03F101032374CED00125D7E762
:10309000407B02081682012010B50446D0F840019A
:1030A00058B10368DB68984738B1D4F84001036829
:1030B0009B6898470023C4F8403110BD2DE9F14FBB
:1030C000D0E9556A0746B06803681B6A9847B0F5AF
:1030D000907F05D2444B454AA321454823F006FD85
:1030E000706803681B6A98470F2803D8414B3F4A12
:1030F000A421F2E7F06803681B6A98470B2803D8FD
:103100003D4B3A4AA521E8E70FF03EFEDFF8F0908C
:1031100004300FF09FFED9F8000010B10368DB689F
:103120009847D9F8000010B103681B689847DFF88A
:10313000D480D8F8000010B103685B699847D7F8CD
:103140003C0110B103685B689847D8F8000010B1E3
:1031500003681B689847D7F83C0110B103689B6867
:103160009847F068036800215B6A98474FF0000BAE
:10317000224BC0F804B0044680F808B00360B06881
:10318000036859465B6A9847054603F037FF706845
:10319000036859465B6A98472946064603F00CFFC8
:1031A000331DC7F83C61C9F80040C8F80050CAF8A0
:1031B00000302B68C6F808A02846DB68EE63984705
:1031C000336830461B6898472146284612F0CCF8F1
:1031D000236820461B69984723685B69204601B035
:1031E000BDE8F04F184700BF7D8202080B8302083C
:1031F000DD83020824840208C7840208CC930208F5
:10320000608201205C820120044B1B6893F85820E7
:103210000AB1D86C00B99868704700BF18820120C5
:1032200000230F4A43600372026003740D4A0E4B81
:1032300012881B8893420BD9073306210532DB081D
:10324000B2FBF1F2082192B243818281C1817047C1
:10325000073205330621D208B3FBF1F39BB2F3E743
:10326000F09302080E8201200C820120F8B5174667
:1032700004460E460FF0BCFE124B1C60124B23603E
:10328000124B0025C4E95135114BC4E95355186858
:10329000036801219B68C4E94F55C4E955769847F6
:1032A000284602F05FFBFFF7AFFF1AF0E0FBFFF7E5
:1032B000ABFF1AF057FCFFF7A7FF1AF05FFC2046A0
:1032C000F8BD00BF6C820120789302086093020869
:1032D00018820120064BC0F84C310023C0F8503151
:1032E00000F5A273C0F84801C0F84031704700BF34
:1032F0007D380008064BC0F84C310023C0F850312F
:1033000000F5A273C0F84801C0F84031704700BF13
:10331000BD300008064BC0F84C310023C0F85031D6
:1033200000F5A273C0F84801C0F84031704700BFF3
:1033300045370008064BC0F84C310023C0F8503127
:1033400000F5A273C0F84801C0F84031704700BFD3
:103350000D360008064BC0F84C310023C0F8503140
:1033600000F5A273C0F84801C0F84031704700BFB3
:10337000D5340008064BC0F84C310023C0F850315A
:1033800000F5A273C0F84801C0F84031704700BF93
:103390009D33000803685B6A184700002DE9F04779
:1033A000D0E9556A0746B06803681B6A9847B0F5CC
:1033B000907F05D2404B414AA321414823F096FB20
:1033C000706803681B6A98470F2803D83D4B3B4A37
:1033D000A421F2E7F06803681B6A9847132803D812
:1033E000394B364AA521E8E70FF0CEFCDFF8DC9038
:1033F00004300FF02FFDD9F8000010B10368DB682E
:103400009847D9F8000010B103681B689847DFF8A7
:10341000C080D8F8000010B103685B699847D7F8FE
:103420003C0110B103685B689847D8F8000010B100
:1034300003681B689847D7F83C0110B103689B6884
:1034400098470021F068FFF7A5FF0446FFF7E8FE64
:10345000B068036800215B6A9847054603F0A6FE42
:103460007068036800215B6A98472946064603F0A6
:103470007BFE331DC7F83C61C9F80040C8F8005016
:10348000CAF800302B68C6F808A02846DB68EE634F
:103490009847336830461B6898472146284611F004
:1034A00063FF236820461B699847236820465B69B1
:1034B000BDE8F047184700BF7D8202086A85020810
:1034C000DD83020824840208C78402086082012088
:1034D0005C8201202DE9F047D0E9556A0746B068C3
:1034E00003681B6A9847B0F5907F05D2404B414A6C
:1034F000A321414823F0FAFA706803681B6A9847D1
:103500000F2803D83D4B3B4AA421F2E7F06803683B
:103510001B6A9847132803D8394B364AA521E8E798
:103520000FF032FCDFF8DC9004300FF093FCD9F898
:10353000000010B10368DB689847D9F8000010B1AB
:1035400003681B689847DFF8C080D8F8000010B106
:1035500003685B699847D7F83C0110B103685B6862
:103560009847D8F8000010B103681B689847D7F84F
:103570003C0110B103689B6898470021F068FFF791
:1035800009FF0446FFF74CFEB068036800215B6A40
:103590009847054603F0CEFD7068036800215B6A1A
:1035A00098472946064603F0A3FD331DC7F83C6142
:1035B000C9F80040C8F80050CAF800302B68C6F8B7
:1035C00008A02846DB68EE639847336830461B68DE
:1035D00098472146284611F0C7FE236820461B69FC
:1035E0009847236820465B69BDE8F047184700BF4D
:1035F0007D8202083F860208DD83020824840208D7
:10360000C7840208608201205C8201202DE9F04716
:10361000D0E9556A0746B06803681B6A9847B0F559
:10362000157F05D2404B414AA321414823F05EFA61
:10363000706803681B6A98470F2803D83D4B3B4AC4
:10364000A421F2E7F06803681B6A9847132803D89F
:10365000394B364AA521E8E70FF096FBDFF8DC90FE
:1036600004300FF0F7FBD9F8000010B10368DB68F5
:103670009847D9F8000010B103681B689847DFF835
:10368000C080D8F8000010B103685B699847D7F88C
:103690003C0110B103685B689847D8F8000010B18E
:1036A00003681B689847D7F83C0110B103689B6812
:1036B00098470021F068FFF76DFE0446FFF7B0FD64
:1036C000B068036800215B6A9847054603F0F6FC82
:1036D0007068036800215B6A98472946064603F034
:1036E000A7FC331DC7F83C61C9F80040C8F800507A
:1036F000CAF800302B68C6F808A02846DB68EE63DD
:103700009847336830461B6898472146284611F091
:103710002BFE236820461B699847236820465B6977
:10372000BDE8F047184700BF7D82020814870208F1
:10373000DD83020824840208C78402086082012015
:103740005C8201202DE9F047D0E9556A0746B06850
:1037500003681B6A9847B0F5907F05D2404B414AF9
:10376000A321414823F0C2F9706803681B6A984797
:103770000F2803D83D4B3B4AA421F2E7F0680368C9
:103780001B6A9847132803D8394B364AA521E8E726
:103790000FF0FAFADFF8DC9004300FF05BFBD9F899
:1037A000000010B10368DB689847D9F8000010B139
:1037B00003681B689847DFF8C080D8F8000010B194
:1037C00003685B699847D7F83C0110B103685B68F0
:1037D0009847D8F8000010B103681B689847D7F8DD
:1037E0003C0110B103689B6898470021F068FFF71F
:1037F000D1FD0446FFF714FDB068036800215B6A41
:103800009847054603F0FAFB7068036800215B6A7D
:1038100098472946064603F0CFFB331DC7F83C61A5
:10382000C9F80040C8F80050CAF800302B68C6F844
:1038300008A02846DB68EE639847336830461B686B
:1038400098472146284611F08FFD236820461B69C2
:103850009847236820465B69BDE8F047184700BFDA
:103860007D820208E9870208DD83020824840208B9
:10387000C7840208608201205C8201202DE9F047A4
:10388000D0E9556A0746B06803681B6A984745F651
:103890008743984205D8404B404AA321404823F033
:1038A00025F9706803681B6A98470F2803D83D4BB9
:1038B0003A4AA421F2E7F06803681B6A9847132884
:1038C00003D8394B354AA521E8E70FF05DFADFF858
:1038D000DC9004300FF0BEFAD9F8000010B1036894
:1038E000DB689847D9F8000010B103681B68984757
:1038F000DFF8BC80D8F8000010B103685B69984716
:10390000D7F83C0110B103685B689847D8F800000D
:1039100010B103681B689847D7F83C0110B10368E1
:103920009B6898470021F068FFF734FD0446FFF7D5
:1039300077FCB068036800215B6A9847054602F08F
:103940000BFE7068036800215B6A984729460646AB
:1039500002F0E2FD331DC7F83C61C9F80040C8F829
:103960000050CAF800302B68C6F808A02846DB686B
:10397000EE639847336830461B68984721462846CF
:1039800011F0F2FC236820461B6998472368204603
:103990005B69BDE8F04718477D820208BE880208CF
:1039A000DD83020824840208C784020860820120A3
:1039B0005C820120406A7047806A704770478A883D
:1039C0000B8810B5D20A4C88C1699BB251F822000D
:1039D00043EA0443184410BD10B50446BAB1107B45
:1039E00068B1537BD27A1B0203F4E0631A43236A63
:1039F00003EB82031A888A4202D193F9020010BDB8
:103A000005D8013880B204330028F3D1F7E700204D
:103A1000F5E710B52C21044622F02CF9204610BD04
:103A200030B58BB00446BDF860500895BDF85C50C9
:103A300007959DF8505006959DF84C5005959DF8BA
:103A4000485004959DF8445003959DF840500295C8
:103A50009DF83C500195BDF83850009511F010F8D4
:103A6000064B2360159BE361169B2362199B6362DF
:103A70001A9BA36220460BB030BD00BF149402080D
:103A800070477047704770477047704701767047BE
:103A90008182C28270477047704770477047704795
:103AA00070477047704790F82C304BB100F16C02B2
:103AB0001268C2653BB100F174031B68036670476E
:103AC00000F16802F4E700F17003F6E730B4C26871
:103AD00044685510034604EB6200D20748BF6259A0
:103AE0009B6830BC48BFD35818470346406830B184
:103AF0009A681AB9D86800F0010070470120704731
:103B000030B4C26844685510034604EB6200D20723
:103B100048BF62599B6830BC48BFD358184703461A
:103B2000406830B19A681AB9D86800F0010070474F
:103B30000120704790F82D3080F85A30704710B54A
:103B40002021044622F096F8204610BD10B57821B9
:103B5000044622F08FF8204610BD10B5102104460F
:103B600022F088F8204610BD10B51021044622F03E
:103B700081F8204610BD70B505460B8825F8043F36
:103B80000446284613F04EF9A071284612F0D4FFDF
:103B90000646284613F004F80023A360E081A681BE
:103BA00004F108000EF058FF284613F0B7F8206122
:103BB00070BD10B5044600F26C6002F00FF904F617
:103BC000540002F00BF904F63C2002F007F904F669
:103BD000244002F003F904F60C6002F0FFF804F64A
:103BE000F47002F0FBF804F58E501C3002F0F6F889
:103BF00004F59E50043002F0F1F804F5AD500C309D
:103C000002F0ECF804F5BC50143002F0E7F804F5CB
:103C1000CB501C3002F0E2F804F5DB50043002F027
:103C2000DDF804F5EA500C3002F0D8F804F5F9504C
:103C3000143002F0D3F804F504501C3002F0CEF832
:103C400004F50C50043002F0C9F804F513502C3080
:103C500002F0C4F804F51B50143002F0BFF804F56C
:103C600022503C3002F0BAF804F52A50243002F019
:103C7000B5F804F532500C3002F0B0F804F53950C4
:103C8000343002F0ABF804F541501C3002F0A6F8D5
:103C900004F54950043002F0A1F804F550502C30DE
:103CA00002F09CF804F55850143002F097F804F52F
:103CB0005F503C3002F092F804F56750243002F077
:103CC0008DF804F56F500C3002F088F804F576504A
:103CD000343002F083F804F57E501C3002F07EF898
:103CE00004F58340043002F079F804F586406C3026
:103CF00002F074F804F58A40543002F06FF804F5CD
:103D00008E403C3002F06AF804F592402430BDE861
:103D1000104002F063B838B500F597437C33994200
:103D200004460D4602D10368DB6A984704F59843C0
:103D300074339D4203D1236820461B6B984704F5DA
:103D400096430C339D4203D1236820465B6B984712
:103D500004F5974304339D4203D1236820469B6BAF
:103D6000984704F58E739D4203D123682046DB6B90
:103D7000984704F24454A54205D10FF005F8BDE878
:103D80003840FFF7B7BA38BD10B50446006B50B1E4
:103D90000368DB68984730B1206B036821469B6855
:103DA000BDE81040184710BD0B7970B590F82C6035
:103DB00004460D460BB916B170BD002EFCD0B3FA07
:103DC00083F35B0984F82C3023682046D3F88C30C9
:103DD0009847236820465B699847002EECD02B79E2
:103DE000012BE9D123682046D3F88830BDE8704024
:103DF000184738B500F20463994204460D4603D1D2
:103E00000EF0C2FFFFF7A6FA04F5C764A54205D17C
:103E10000EF0BAFFBDE83840FFF7ACBA38BD70B558
:103E200004461D46BDF91060FEF726FF23682946AB
:103E300020469B6B9847236831462046DB6BBDE8E4
:103E4000704018474FF48071002281840549016059
:103E5000C0E90122C0E90322C0E90522C0E9072226
:103E600082627047609C02080022C0E90122C0E91A
:103E70000322C0E90522C0E907224FF48072828440
:103E8000014A0260704700BF7C94020810B52622E8
:103E90000446002123F031F82046FFF7E5FF044BEC
:103EA0002360FF2384F826300023A362204610BD40
:103EB000ACA00208036880F82D10D3F890301847A2
:103EC00038B504460D46FDF72BFE0B4BA3602B883F
:103ED000A3810023C4E90433C4E90633A37384F83F
:103EE000203004F108002946FFF745FE034B23600C
:103EF0002433A360204638BDE4940208409D0208A4
:103F000010B526220446002122F0F7FF2046FFF7D5
:103F1000ABFF0023A36284F82C30012384F8243003
:103F2000044B23604FF6FF7384F83230E385238619
:103F3000204610BD14A1020810B5034B03600446CF
:103F4000FEF774FD204610BD689702085A4B10B565
:103F5000044603600DF01EFA04F592402430FFF78A
:103F6000EBFF04F58E403C30FFF7E6FF04F58A4096
:103F70005430FFF7E1FF04F586406C30FFF7DCFFBB
:103F800004F583400430FFF7D7FF04F57E501C3062
:103F9000FFF7D2FF04F576503430FFF7CDFF04F57C
:103FA0006F500C30FFF7C8FF04F567502430FFF75F
:103FB000C3FF04F55F503C30FFF7BEFF04F55850D7
:103FC0001430FFF7B9FF04F550502C30FFF7B4FF61
:103FD00004F549500430FFF7AFFF04F541501C30A1
:103FE000FFF7AAFF04F539503430FFF7A5FF04F5B9
:103FF00032500C30FFF7A0FF04F52A502430FFF7B1
:104000009BFF04F522503C30FFF796FF04F51B5050
:104010001430FFF791FF04F513502C30FFF78CFF9D
:1040200004F50C500430FFF787FF04F504501C30F2
:10403000FFF782FF04F5F9501430FFF77DFF04F518
:10404000EA500C30FFF778FF04F5DB500430FFF73F
:1040500073FF04F5CB501C30FFF76EFF04F5BC5026
:104060001430FFF769FF04F5AD500C30FFF764FF23
:1040700004F59E500430FFF75FFF04F58E501C30AE
:10408000FFF75AFF04F6F470FFF756FF04F60C60D2
:10409000FFF752FF04F62440FFF74EFF04F63C20E2
:1040A000FFF74AFF04F65400FFF746FF04F26C6086
:1040B000FFF742FF204610BDCC95020810B504461C
:1040C000FFF744FF204645F6443121F0D3FD20465A
:1040D00010BD10B50446FFF72FFF20464FF4F471D2
:1040E00021F0C8FD204610BD70B50446FFF7AAFEBA
:1040F0004FF47F432646A3850123002584F824300E
:104100000D4B256346F8343B3046FFF7BFFE0B4BA3
:1041100063632A4629463046C4E91A55C4E91C554A
:104120002566A4F86450FEF7A7FD2046314608F046
:10413000EBF8204670BD00BF0095020888A1020878
:1041400010B40367019B436703685DF8044BD3F821
:104150008C30C0E91A1218472DE9F04F0446C1B05F
:10416000A246002510F054FFDC4BE5634AF8403BC3
:104170005046FFF78BFE04F16C0304F198071846D4
:104180004FF6FF762F93FFF75DFE3EA93846ADF858
:10419000F860FEF77FFD04F1C40318460993FFF7AA
:1041A00051FE04F1F00304F58E793EA918460793F9
:1041B000ADF8F860FEF76EFD4846FFF795FF04F591
:1041C000CA7318462993FEF77FFDC54BC4F8943196
:1041D00004F5F0731846C4F8DC510893FFF732FE7B
:1041E00004F503733EA9184604F50E782B93ADF839
:1041F000F860FEF74FFD404607F0B8FE04F55B732C
:104200003EA9184604F5667B3093ADF8F860FFF7D9
:1042100057FE584607F0AAFE04F2CC433EA91846C2
:104220003193ADF8F860FFF74BFE04F59F63184635
:104230002A93FEF749FDAA4BC4F8F83404F244531C
:104240001846C4F840552C93FFF74EFF04F2BC53B8
:1042500018460A93FEF738FD04F2046318462D93BE
:10426000FFF74EFE04F5C76318462E93FFF748FE8E
:1042700004F26C631846329301F06AFC04F65403AE
:104280001846339301F064FC04F63C23184634933B
:1042900001F05EFC04F624431846359301F058FC07
:1042A00004F60C631846369301F052FC04F6F473DE
:1042B0001846379301F04CFC04F58E531C33184616
:1042C0000B9301F045FC04F59E53043318460C9300
:1042D00001F03EFC04F5AD530C3318460D9301F08C
:1042E00037FC04F5BC53143318460E9301F030FC30
:1042F00004F5CB531C3318460F9301F029FC04F549
:10430000DB5304331846109301F022FC04F5EA5302
:104310000C331846119301F01BFC04F5F9531433C8
:104320001846129301F014FC04F504531C3318468C
:10433000139301F00DFC04F50C5304331846149349
:1043400001F006FC04F513532C331846159301F0C5
:10435000FFFB04F51B5314331846169301F0F8FBCA
:1043600004F522533C331846179301F0F1FB04F592
:104370002A5324331846189301F0EAFB04F532530C
:104380000C331846199301F0E3FB04F53953343329
:1043900018461A9301F0DCFB04F541531C33184610
:1043A0001B9301F0D5FB04F54953043318461C93C5
:1043B00001F0CEFB04F550532C3318461D9301F049
:1043C000C7FB04F55853143318461E9301F0C0FB85
:1043D00004F55F533C3318461F9301F0B9FB04F515
:1043E000675324331846209301F0B2FB04F56F5352
:1043F0000C331846219301F0ABFB04F576533433AC
:104400001846229301F0A4FB04F57E531C33184692
:10441000239301F09DFB04F5834304331846249352
:1044200001F096FB04F586436C331846259301F0A2
:104430008FFB04F58A4354331846269301F088FB1A
:1044400004F58E433C331846279301F081FB04F5B5
:10445000924324331846289301F07AFB04F59643DF
:104460000C3318460393FFF73FFE04F597430433DC
:1044700018460493FFF738FE04F597437C3318463B
:104480000593FFF731FE04F59843743318460693FD
:10449000FFF72AFE04F5A043124AC3F8242B124A60
:1044A000C3F82C2B114AC3F8342B04F59A40104A58
:1044B000C3F83C2BC3F8284BC3F8305BC3F8384B28
:1044C000C3F8405B4FF4616114300CF059FF4FF4B6
:1044D000A0732A465046009329460BE0CC9502086B
:1044E000309102089C950208173D0008B495020817
:1044F000F33D0008F023FFF792FC261D4FF07F43A9
:104500005146A366304607F0FFFEF02300932A468B
:104510002F982946FFF783FC2F99304607F0F4FEC9
:104520002A4638462946FEF7A7FB4FF004033846D3
:104530003EA9ADF8F8300CF021F839463046502746
:1045400007F0E2FE3B4609980097F022A021FFF712
:1045500066FC2A4607982946FEF78EFB1423079827
:10456000ADF8F8303EA90CF009F80799099807F062
:10457000CBFE3B462A46294604F5A8700097FFF774
:104580004EFC294B294A2A494FF0050AA4F880A17C
:104590000093A3F13313A3F54C534846FFF7D0FD26
:1045A00048462946FFF786FC04F5B6432433C4F891
:1045B0004C312A464846079329463B460097FFF769
:1045C0002EFC4946099807F09FFE0F223223114620
:1045D00029980093FFF723FC164BC4F8C431D4F894
:1045E00094312999D3F88430A4F8C85138A8984751
:1045F00038AA07CA04F5E87383E807000E4B1B6866
:1046000004F5994909F16C092BB90C4B0C4A60214E
:104610000C4822F06BFA0C4B1B88022B18D80B4B62
:10462000074A6121F4E700BF996633FFCC9900FF88
:10463000996600FF2803FFFF708201202D81020888
:104640002F820208AA81020874820120F1810208E7
:10465000D34B0221186801F0C1F9D24A03460A215E
:10466000484612F0AFF94FF003013EA8CE4BC4F814
:10467000DC91ADF8FC10014629983E930BF052FDF9
:104680002999099807F040FE0999304607F03CFE49
:10469000A02308980097F0222946FFF7C0FB2A467E
:1046A0002B982946FEF7E8FA3EA801462B98ADF86C
:1046B000F8A00BF063FF2B99089807F025FE4FF048
:1046C0000A09404637220D21FEF7D6FA40466423F8
:1046D0002A462946CDF8009007F02FFC2B4664228D
:1046E00040462946009507F073FC0DF1F80C4FF099
:1046F00002006146ADF8F800404607F097FD0DF165
:10470000F80C4FF003013098ADF8F810614609F04D
:10471000A0FB4046309907F06FFB404652462946C1
:1047200007F095FB52464046642107F075FB404672
:10473000494607F095FB4046294607F09CFB40465A
:10474000494607F0AEFB4146089807F0DDFD2922F7
:104750000D215846FEF790FA64232A46294658460A
:10476000CDF8009007F0E9FB2B4664222946584615
:10477000009507F02DFC4FF00200ADF8F8003EA8C0
:104780000146584607F052FD4FF003013198ADF84D
:10479000F8103EA909F05DFB3199584607F02CFB53
:1047A00052462946584607F052FB52466421584665
:1047B00007F032FB4946584607F052FB2946584657
:1047C00007F059FB2946584607F06BFB08985946F5
:1047D00007F09AFD0D212A980F22FEF74DFA734932
:1047E000A4F82C554FF0FF33C4F82835C4F83835F9
:1047F0000B68C4F83455C4F83C5504F59A48002BAE
:104800003FF403AF6A490B88042B7FF608AF644A74
:104810000421106801F0E2F8624A03464946404626
:1048200012F0D0F82A98C4F840850BF05BFC5E4B80
:104830002A983E933EA9ADF8FCA00BF073FC2A9990
:10484000089807F061FD4FF023080899304607F0FB
:104850005BFDCDF800802A46294604F5AF601E2393
:10486000FFF7DDFA534BA4F8A8A50093A3F1331387
:104870002C98514A5149A3F54C53FFF761FC079915
:10488000C4F874151E232C98CDF80080F0228221E4
:10489000FFF7C5FA2C99304607F036FD0A98F82242
:1048A0008B21FEF7E9F94FF07F41C4F8EC1538A8E9
:1048B0000A99A4F8F0550BF09BF938A907C904F53B
:1048C000BF6383E80700384A0A983E923EA9ADF8D4
:1048D000FC500BF027FC0A99304607F015FD04F553
:1048E000B6482D9829466FF03802FEF7C5F94FF00B
:1048F00001093EAA2D98ADF8F4503DA908F13408FD
:10490000ADF8F8900BF06CFC2D99C4F82C8630466D
:1049100007F0FAFC2E9829464FF4A572FEF7ACF981
:104920003EAA2E98ADF8F4503DA9ADF8F8900BF0E2
:1049300057FC2E99C4F86086304607F0E5FC2A46FD
:1049400032982946FEF798F93299304607F0DCFC98
:104950002A4633982821FEF78FF93399304607F01D
:10496000D3FC2A4634983946FEF786F93499304606
:1049700007F0CAFC2A4635987821FEF77DF935996B
:10498000304607F0C1FC2A463698A021FEF774F99C
:104990003699304607F0B8FC2A463798C8210FE010
:1049A0007C8201207A820208209102087082012014
:1049B00074820120996633FFCC9900FF996600FF4D
:1049C000FEF75AF93799304607F09EFC0B982822DB
:1049D0002946FEF751F90B99304607F095FC28223D
:1049E00011460C98FEF748F90C99304607F08CFCFC
:1049F0000D9828223946FEF73FF90D99304607F009
:104A000083FC0E9828227821FEF736F90E9930465D
:104A100007F07AFC0F982822A021FEF72DF90F99B4
:104A2000304607F071FC10982822C821FEF724F9BF
:104A30001099304607F068FC3A4611982946FEF76F
:104A40001BF91199304607F05FFC3A46129828216D
:104A5000FEF712F91299304607F056FC3A461398C1
:104A60003946FEF709F91399304607F04DFC3A46EE
:104A700014987821FEF700F91499304607F044FCA9
:104A80003A461598A021FEF7F7F81599304607F039
:104A90003BFC3A461698C821FEF7EEF816993046C8
:104AA00007F032FC179878222946FEF7E5F81799A7
:104AB000304607F029FC189878222821FEF7DCF808
:104AC0001899304607F020FC199878223946FEF7ED
:104AD000D3F81999304607F017FC782211461A9836
:104AE000FEF7CAF81A99304607F00EFC1B98782298
:104AF000A021FEF7C1F81B99304607F005FC1C9871
:104B00007822C821FEF7B8F81C99304607F0FCFB64
:104B10001D98A0222946FEF7AFF81D99304607F0F0
:104B2000F3FB1E98A0222821FEF7A6F81E99304616
:104B300007F0EAFB1F98A0223946FEF79DF81F995F
:104B4000304607F0E1FB2098A0227821FEF794F888
:104B50002099304607F0D8FBA02211462198FEF795
:104B60008BF82199304607F0CFFB2298A022C8216C
:104B7000FEF782F82299304607F0C6FB2398C82238
:104B80002946FEF779F82399304607F0BDFB2498B3
:104B9000C8222821FEF770F82499304607F0B4FBAC
:104BA0002598C8223946FEF767F82599304607F060
:104BB000ABFB2698C8227821FEF75EF8269930468E
:104BC00007F0A2FB2798C822A021FEF755F82799E5
:104BD000304607F099FBC82211462898FEF74CF89A
:104BE0002899304607F090FB039800972A462946FB
:104BF0004F233430FFF713F904F580484B4BA8F8E6
:104C000070AB0093A3F13313494A03984949A3F5C4
:104C10004C53FFF795FA03982946FFF74BF9079A8B
:104C2000C8F83C2B039800972A464F235121FFF7E1
:104C3000F6F80399304607F067FB049800972A4678
:104C400029464F233430FFF7EAF8384BA8F8E8AB91
:104C50000093A3F13313364A04983649A3F54C5315
:104C6000FFF76EFA04982946FFF724F9079AC8F867
:104C7000B42B049800974F23A0225121FFF7CFF8BF
:104C80000499304607F040FB059800973B462A46BA
:104C900029463430FFF7C3F8244BA8F860AC0093E2
:104CA000A3F13313224A05982249A3F54C53FFF789
:104CB00047FA05982946FFF7FDF8079AC8F82C2C03
:104CC0003B463A46059800972946FFF7A8F805990C
:104CD000304607F019FB069800972A4629464F23CD
:104CE0003430FFF79CF8114BA8F8D8AC0093A3F12F
:104CF00033130F4A06980F49A3F54C53FFF720FAD8
:104D000006982946FFF7D6F8079BC8F8A43C0698F2
:104D100000974F233A46A121FFF781F830460699C4
:104D200007F0F2FA204641B0BDE8F08F996633FFF4
:104D3000CC9900FF996600FF70477047704730B408
:104D4000C26844685510034604EB6200D20748BFAE
:104D500062599B6830BC48BFD35818470346406827
:104D600030B19A681AB9D86800F001007047012084
:104D7000704710B51021044620F07CFF204610BD7E
:104D800010B54FF49071044620F074FF204610BD1A
:104D90009830884208B505D10DF0F6FFBDE808400F
:104DA000FEF7C8BA08BD00002DE9F04F044685B0F3
:104DB000A046002510F02CF9594BE56348F8403B1C
:104DC00004F16C074046FFF761F84FF6FF762622A4
:104DD00029463846ADF80C6022F08FF83846FDF7CA
:104DE00039FF504BE366BDF80C30A4F8923003A9AC
:104DF00084F89460384604F198060BF0BFFB304607
:104E0000FDF728FF4FF47F43A4F8C430012304F1D9
:104E1000CC0984F8BC30444BC4F89830C4F8C05076
:104E2000C4F8C8504846FFF731F8404BC4F8CC30BE
:104E30002A4629464846C4E94055C4E94255C4F8C3
:104E4000F850A4F8FC50FDF717FF4946304607F02C
:104E50005BFA374BC4E94434364B4FF4A07BC4E9CA
:104E600046352A4629464046CDF800B0F023FEF7E5
:104E7000D6FF04F1040A4FF07F43A3664146504633
:104E800007F042FA2A4629463846FDF7F5FE172371
:104E900003A93846ADF80C300BF070FB394650468C
:104EA00007F032FA2A4629464846CDF800B0F023EA
:104EB000FEF7B5FF0523A4F8FC301F4BC4F8003102
:104EC00003F54C533333C4F80431A3F5CC43663BAC
:104ED000C4F8083103F1331303F54C53D4F8987038
:104EE000C4F80C313046FEF7DEFD84F8C550D7F823
:104EF00090303046984704F58873C4F8C8302A4685
:104F0000F02329463046CDF800B0FEF788FF504622
:104F1000314607F0F9F9204605B0BDE8F08F00BF33
:104F20002C960208F0A102080095020888A1020848
:104F300014960208914D0008996600FF704770476B
:104F40007047704770477047704730B4C268446814
:104F50005510034604EB6200D20748BF62599B68B4
:104F600030BC48BFD35818470346406830B19A68F0
:104F70001AB9D86800F0010070470120704730B4BA
:104F8000C26844685510034604EB6200D20748BF6C
:104F900062599B6830BC48BFD358184703464068E5
:104FA00030B19A681AB9D86800F001007047012042
:104FB000704710B51021044620F05CFE204610BD5D
:104FC00010B51021044620F055FE204610BD10B546
:104FD0004FF41571044620F04DFE204610BD00F13F
:104FE000CC03994270B504460D4602D10368DB6AD2
:104FF000984704F5A2739D4203D1236820461B6B9A
:10500000984704F5DE739D4205D1236820465B6B0B
:10501000BDE87040184770BD6C30884208B505D1B6
:105020000DF0B2FEBDE80840FEF754B908BD00001F
:105030002DE9F04F044687B0A24600250FF0E8FFA7
:10504000884BE5634AF8403B04F16C094FF02608B1
:105050005046FEF71BFF42462946484621F04DFFC9
:105060004846FEF701FF04F1A0074FF6FF767E4B9E
:10507000E3664FF0010B4246294684F890B0A4F84D
:105080009A60A4F89C6084F89E60C4F8945084F8F8
:1050900098503846ADF8146021F02FFF3846FEF7DF
:1050A000E3FE724BC4F8A030BDF81430A4F8C6304B
:1050B00005A904F1CC0884F8C86038460BF05EFA04
:1050C0004046FFF711F804F5A27318460293FFF764
:1050D0000BF804F5DE7318460393FFF705F8644BED
:1050E000C4E98D34634BC4E98F35634BC4E9913413
:1050F000624BC4E993354FF4A0732A4600932946C6
:105100005046F023FEF78BFE261D4FF07F43A3662B
:105110005146304607F0F8F8294648466FF03D0200
:10512000FDF7AAFD05AA04A94846ADF814B0ADF8EC
:1051300010500BF055F804F51173C4F8943049463B
:10514000304607F0E1F86FF00B0229463846FDF7CC
:1051500093FD0D2305A93846ADF814300BF00EFA77
:1051600039463046362707F0CFF82A46294604F557
:10517000807000979D23FEF752FEDFF810B1404B80
:10518000404A41494FF0050AC4E94F21C4E94DB3F3
:105190004046A4F830A1FEF786FC04F50D792946B7
:1051A0004046FEF787FEC4F8FC909D234F22404600
:1051B00000972A21FEF733FE4146304607F0A4F857
:1051C0002A46294604F5BC7000979D23FEF727FE6A
:1051D0002B4B2C4A2C490298C4F8B811C4E96C3204
:1051E000A4F8A8A1C4F8ACB1FEF75DFC029829466A
:1051F000FEF760FE0298C4F874919D2398220097F0
:105200002A21FEF70CFE0299304607F07DF82A4667
:10521000294604F5F87000979D23FEF700FE184B11
:10522000184A19490398C4F83012C4E98A32A4F81C
:1052300020A2C4F824B2FEF736FC03982946FEF7F4
:1052400039FE0398C4F8EC919D23E02200972A21AF
:10525000FEF7E5FD3046039907F056F8204607B003
:10526000BDE8F08F9096020814A10208F0A1020890
:1052700060960208DF4F000878960208195000086F
:10528000CC9900FF663300FF996633FF996600FFF3
:1052900070477047704730B4C26844685510034681
:1052A00004EB6200D20748BF62599B6830BC48BF1C
:1052B000D35818470346406830B19A681AB9D8687D
:1052C00000F0010070470120704710B5102104461E
:1052D00020F0D0FC204610BD10B54FF4907104466C
:1052E00020F0C8FC204610BD9830884208B505D192
:1052F0000DF04AFDBDE80840FEF70CB808BD0000FF
:105300002DE9FF470446A04600250FF081FE594BCA
:10531000E56348F8403B04F16C074046FEF7B6FDF4
:105320004FF6FF76262229463846ADF80C6021F06C
:10533000E4FD3846FDF78EFC4F4BE366BDF80C30BC
:10534000A4F8923003A984F89460384604F19806D2
:105350000BF014F93046FDF77DFC4FF47F43A4F8C1
:10536000C430012304F1CC0984F8BC30434BC4F8A9
:105370009830C4F8C050C4F8C8504846FEF786FDBF
:105380003F4BC4F8CC302A4629464846C4E940552C
:10539000C4E94255C4F8F850A4F8FC50FDF76CFC81
:1053A0004946304606F0B0FF364BC4E94434364B2C
:1053B000C4E946354FF4A0732A4600932946404677
:1053C000F023FEF72CFD04F1040A4FF07F43A3669F
:1053D0004146504606F098FF6FF01A0229463846BB
:1053E000FDF74AFC0A2303A93846ADF80C300BF050
:1053F000C5F839465046322706F086FF2A46294628
:10540000484600979823FEF70AFD0523A4F8FC30D0
:105410001E4BC4F8003103F54C533333C4F8043148
:10542000A3F5CC43663BC4F8083103F1331303F50D
:105430004C53D4F89880C4F80C313046FEF733FB57
:1054400084F8C550D8F890303046984704F58873F2
:10545000C4F8C830D5229823304600972C21FEF797
:10546000DEFC5046314606F04FFF204604B0BDE852
:10547000F08700BFE8960208F0A102080095020834
:1054800088A10208D0960208E9520008996600FF38
:1054900070477047704730B4C2684468551003467F
:1054A00004EB6200D20748BF62599B6830BC48BF1A
:1054B000D35818470346406830B19A681AB9D8687B
:1054C00000F0010070470120704710B5102104461C
:1054D00020F0D0FB204610BD10B54FF4907104466B
:1054E00020F0C8FB204610BD9830884208B505D191
:1054F0000DF04AFCBDE80840FDF70CBF08BD0000F8
:105500002DE9FF470446A04600250FF081FD584BCA
:10551000E56348F8403B04F16C074046FEF7B6FCF3
:105520004FF6FF76262229463846ADF80C6021F06A
:10553000E4FC3846FDF78EFB4E4BE366BDF80C30BD
:10554000A4F8923003A984F89460384604F19806D0
:105550000BF014F83046FDF77DFB4FF47F43A4F8C1
:10556000C430012304F1CC0984F8BC30424BC4F8A8
:105570009830C4F8C050C4F8C8504846FEF786FCBE
:105580003E4BC4F8CC302A4629464846C4E940552B
:10559000C4E94255C4F8F850A4F8FC50FDF76CFB80
:1055A0004946304606F0B0FE354BC4E94434354B2D
:1055B000C4E946354FF4A0732A4600932946404675
:1055C000F023FEF72CFC04F1040A4FF07F43A3669E
:1055D0004146504606F098FE2A4629463846FDF7D1
:1055E0004BFB182303A93846ADF80C300AF0C6FF70
:1055F00039465046322706F087FE2A462946484655
:105600000097AC23FEF70BFC0523A4F8FC301E4BDF
:10561000C4F8003103F54C533333C4F80431A3F517
:10562000CC43663BC4F8083103F1331303F54C5304
:10563000D4F89880C4F80C313046FEF734FA84F878
:10564000C550D8F890303046984704F58873C4F8B0
:10565000C830CF22AC23304600972221FEF7DFFB73
:105660005046314606F050FE204604B0BDE8F087B3
:1056700034970208F0A102080095020888A10208E8
:105680001C970208E9540008996600FF7047000063
:1056900030B5174D2C6814F001048FB0BFF35B8F49
:1056A00022D1284620F0E8FAF0B13F230993114BAC
:1056B0000893114B07930123CDE905330493042389
:1056C000CDE902430A230D4900935F220C23CDE963
:1056D0000B440B480A940194FEF7A2F9094821F003
:1056E00023FA284620F0D4FA05480FB030BD00BF99
:1056F000C873002070490308304E0308B839030806
:10570000CC7300208D5600087047000030B5164D50
:105710002C6814F001048FB0BFF35B8F21D12846B1
:1057200020F0AAFAE8B13F230993104B0893104BDD
:10573000104911480A94CDE9064301220423CDE91A
:105740000332132300930222CDE90B44CDE9014437
:105750000594FEF765F9094821F0E6F9284620F09E
:1057600097FA05480FB030BDF8730020A44903082C
:10577000344E0308EC3E0308FC7300200957000870
:105780007047000030B5174D2C6814F001048FB03D
:10579000BFF35B8F22D1284620F06EFAF0B13F2391
:1057A0000993114B0893114B07930123CDE905335E
:1057B00004930423CDE9024314230D4900935F228F
:1057C0001823CDE90B440B480A940194FEF728F9FD
:1057D000094821F0A9F9284620F05AFA05480FB0E7
:1057E00030BD00BF28740020A8490308384E0308C4
:1057F000083F03082C740020815700087047000000
:1058000030B5174D2C6814F001048FB0BFF35B8FD7
:1058100023D1284620F030FAF8B13F230993114BE9
:105820000893114B07930223CDE90533012204238A
:10583000CDE9033228230D4900935F223023CDE9BF
:105840000B44CDE901440A480A94FEF7E9F80948F7
:1058500021F06AF9284620F01BFA05480FB030BD48
:10586000587400204C4B03083C4E03083C4403088A
:105870005C740020FD57000800207047002070472E
:105880000EB403B503AB002153F8042B01930EF0C3
:1058900075FB02B05DF804EB03B070470CB407B5BC
:1058A00004AB53F8042B01930EF068FB03B05DF8D2
:1058B00004EB02B070470000436C10B5044673B3AC
:1058C000038F2BB9184B194AC521194821F00EF93D
:1058D000C38E00EB43035B8C0BB310F0CAFA238F2B
:1058E000012B03D8134B144ACB21EEE7E28E531C55
:1058F0009BB2092B194688BFA3F10A0104EB4101B1
:1059000040F63F10498C814209D10A2B04EB420238
:1059100028BF002304EB4303508C58845184204655
:10592000BDE8104010F0A8B9938902089C890208CC
:10593000478A0208918A02089F8A020810F063B918
:1059400010B586B002AC84E806001A460AAB05938F
:105950000193099B00932146089B0CF0B3FD06B010
:1059600010BD000038B518BB124B13481C68134912
:10597000B4B1226822440260626822440A60A268CC
:1059800014440F4B00221A8000F038F8054600F04E
:1059900033F80C4B1C600C4B1D600C4B188007E05F
:1059A0000B4B03600B4B0B600B4B1C68002CE8D1BE
:1059B00038BD00BF947400208C74002088740020CF
:1059C000907400207082012078820120748201206E
:1059D000644E0308404E0308884E0308044B1B68BE
:1059E00053F82100034B1B6803EB4000704700BFD6
:1059F000887400208C74002009207047004870478C
:105A00009874002010B5FFF7BDFE064C2060FFF72C
:105A1000F7FE6060FFF73CFEA060FFF777FEE060F6
:105A200010BD00BF9874002010B5002404600C6005
:105A300014601C6010BD0000F8B504460025174630
:105A400007989DF82420C4F80E509DF81860C4F8FB
:105A50000A5065820B25C4E90070257421726672B4
:105A6000D2B1721F052A17D8DFE802F027031616F5
:105A7000270301384FF0FF3300286060E3601CDC2F
:105A8000002001216060E17200F028FD10B90923B7
:105A9000237412E00523FBE7CA1E012A0FD8F21E69
:105AA000012A0CD800233844236001236060A372CC
:105AB0000328CCBF0423032363722046F8BD751F5F
:105AC000052D3AD801A252F825F000BFFD5A000872
:105AD000735A00081F5B0008BB5A0008E55A00080B
